{
  "_format": "hh-sol-artifact-1",
  "contractName": "MezoDomains",
  "sourceName": "contracts/MezoDomains.sol",
  "abi": [
    {
      "inputs": [],
      "stateMutability": "nonpayable",
      "type": "constructor"
    },
    {
      "anonymous": false,
      "inputs": [
        {
          "indexed": true,
          "internalType": "address",
          "name": "owner",
          "type": "address"
        },
        {
          "indexed": true,
          "internalType": "address",
          "name": "approved",
          "type": "address"
        },
        {
          "indexed": true,
          "internalType": "uint256",
          "name": "tokenId",
          "type": "uint256"
        }
      ],
      "name": "Approval",
      "type": "event"
    },
    {
      "anonymous": false,
      "inputs": [
        {
          "indexed": true,
          "internalType": "address",
          "name": "owner",
          "type": "address"
        },
        {
          "indexed": true,
          "internalType": "address",
          "name": "operator",
          "type": "address"
        },
        {
          "indexed": false,
          "internalType": "bool",
          "name": "approved",
          "type": "bool"
        }
      ],
      "name": "ApprovalForAll",
      "type": "event"
    },
    {
      "anonymous": false,
      "inputs": [
        {
          "indexed": true,
          "internalType": "string",
          "name": "domainName",
          "type": "string"
        },
        {
          "indexed": true,
          "internalType": "address",
          "name": "owner",
          "type": "address"
        },
        {
          "indexed": true,
          "internalType": "uint256",
          "name": "tokenId",
          "type": "uint256"
        }
      ],
      "name": "DomainRegistered",
      "type": "event"
    },
    {
      "anonymous": false,
      "inputs": [
        {
          "indexed": true,
          "internalType": "address",
          "name": "previousOwner",
          "type": "address"
        },
        {
          "indexed": true,
          "internalType": "address",
          "name": "newOwner",
          "type": "address"
        }
      ],
      "name": "OwnershipTransferred",
      "type": "event"
    },
    {
      "anonymous": false,
      "inputs": [
        {
          "indexed": true,
          "internalType": "address",
          "name": "from",
          "type": "address"
        },
        {
          "indexed": true,
          "internalType": "address",
          "name": "to",
          "type": "address"
        },
        {
          "indexed": true,
          "internalType": "uint256",
          "name": "tokenId",
          "type": "uint256"
        }
      ],
      "name": "Transfer",
      "type": "event"
    },
    {
      "inputs": [
        {
          "internalType": "address",
          "name": "to",
          "type": "address"
        },
        {
          "internalType": "uint256",
          "name": "tokenId",
          "type": "uint256"
        }
      ],
      "name": "approve",
      "outputs": [],
      "stateMutability": "nonpayable",
      "type": "function"
    },
    {
      "inputs": [
        {
          "internalType": "address",
          "name": "owner",
          "type": "address"
        }
      ],
      "name": "balanceOf",
      "outputs": [
        {
          "internalType": "uint256",
          "name": "",
          "type": "uint256"
        }
      ],
      "stateMutability": "view",
      "type": "function"
    },
    {
      "inputs": [
        {
          "internalType": "string",
          "name": "",
          "type": "string"
        }
      ],
      "name": "domainToTokenId",
      "outputs": [
        {
          "internalType": "uint256",
          "name": "",
          "type": "uint256"
        }
      ],
      "stateMutability": "view",
      "type": "function"
    },
    {
      "inputs": [
        {
          "internalType": "uint256",
          "name": "tokenId",
          "type": "uint256"
        }
      ],
      "name": "getApproved",
      "outputs": [
        {
          "internalType": "address",
          "name": "",
          "type": "address"
        }
      ],
      "stateMutability": "view",
      "type": "function"
    },
    {
      "inputs": [
        {
          "internalType": "string",
          "name": "_domainName",
          "type": "string"
        }
      ],
      "name": "getDomainOwner",
      "outputs": [
        {
          "internalType": "address",
          "name": "",
          "type": "address"
        }
      ],
      "stateMutability": "view",
      "type": "function"
    },
    {
      "inputs": [
        {
          "internalType": "address",
          "name": "owner",
          "type": "address"
        },
        {
          "internalType": "address",
          "name": "operator",
          "type": "address"
        }
      ],
      "name": "isApprovedForAll",
      "outputs": [
        {
          "internalType": "bool",
          "name": "",
          "type": "bool"
        }
      ],
      "stateMutability": "view",
      "type": "function"
    },
    {
      "inputs": [],
      "name": "name",
      "outputs": [
        {
          "internalType": "string",
          "name": "",
          "type": "string"
        }
      ],
      "stateMutability": "view",
      "type": "function"
    },
    {
      "inputs": [],
      "name": "nextTokenId",
      "outputs": [
        {
          "internalType": "uint256",
          "name": "",
          "type": "uint256"
        }
      ],
      "stateMutability": "view",
      "type": "function"
    },
    {
      "inputs": [],
      "name": "owner",
      "outputs": [
        {
          "internalType": "address",
          "name": "",
          "type": "address"
        }
      ],
      "stateMutability": "view",
      "type": "function"
    },
    {
      "inputs": [
        {
          "internalType": "uint256",
          "name": "tokenId",
          "type": "uint256"
        }
      ],
      "name": "ownerOf",
      "outputs": [
        {
          "internalType": "address",
          "name": "",
          "type": "address"
        }
      ],
      "stateMutability": "view",
      "type": "function"
    },
    {
      "inputs": [
        {
          "internalType": "string",
          "name": "_domainName",
          "type": "string"
        }
      ],
      "name": "registerDomain",
      "outputs": [],
      "stateMutability": "payable",
      "type": "function"
    },
    {
      "inputs": [],
      "name": "registrationFee",
      "outputs": [
        {
          "internalType": "uint256",
          "name": "",
          "type": "uint256"
        }
      ],
      "stateMutability": "view",
      "type": "function"
    },
    {
      "inputs": [],
      "name": "renounceOwnership",
      "outputs": [],
      "stateMutability": "nonpayable",
      "type": "function"
    },
    {
      "inputs": [
        {
          "internalType": "address",
          "name": "from",
          "type": "address"
        },
        {
          "internalType": "address",
          "name": "to",
          "type": "address"
        },
        {
          "internalType": "uint256",
          "name": "tokenId",
          "type": "uint256"
        }
      ],
      "name": "safeTransferFrom",
      "outputs": [],
      "stateMutability": "nonpayable",
      "type": "function"
    },
    {
      "inputs": [
        {
          "internalType": "address",
          "name": "from",
          "type": "address"
        },
        {
          "internalType": "address",
          "name": "to",
          "type": "address"
        },
        {
          "internalType": "uint256",
          "name": "tokenId",
          "type": "uint256"
        },
        {
          "internalType": "bytes",
          "name": "data",
          "type": "bytes"
        }
      ],
      "name": "safeTransferFrom",
      "outputs": [],
      "stateMutability": "nonpayable",
      "type": "function"
    },
    {
      "inputs": [
        {
          "internalType": "address",
          "name": "operator",
          "type": "address"
        },
        {
          "internalType": "bool",
          "name": "approved",
          "type": "bool"
        }
      ],
      "name": "setApprovalForAll",
      "outputs": [],
      "stateMutability": "nonpayable",
      "type": "function"
    },
    {
      "inputs": [
        {
          "internalType": "uint256",
          "name": "_newFee",
          "type": "uint256"
        }
      ],
      "name": "setRegistrationFee",
      "outputs": [],
      "stateMutability": "nonpayable",
      "type": "function"
    },
    {
      "inputs": [
        {
          "internalType": "bytes4",
          "name": "interfaceId",
          "type": "bytes4"
        }
      ],
      "name": "supportsInterface",
      "outputs": [
        {
          "internalType": "bool",
          "name": "",
          "type": "bool"
        }
      ],
      "stateMutability": "view",
      "type": "function"
    },
    {
      "inputs": [],
      "name": "symbol",
      "outputs": [
        {
          "internalType": "string",
          "name": "",
          "type": "string"
        }
      ],
      "stateMutability": "view",
      "type": "function"
    },
    {
      "inputs": [
        {
          "internalType": "uint256",
          "name": "",
          "type": "uint256"
        }
      ],
      "name": "tokenIdToDomain",
      "outputs": [
        {
          "internalType": "string",
          "name": "",
          "type": "string"
        }
      ],
      "stateMutability": "view",
      "type": "function"
    },
    {
      "inputs": [
        {
          "internalType": "uint256",
          "name": "tokenId",
          "type": "uint256"
        }
      ],
      "name": "tokenURI",
      "outputs": [
        {
          "internalType": "string",
          "name": "",
          "type": "string"
        }
      ],
      "stateMutability": "view",
      "type": "function"
    },
    {
      "inputs": [
        {
          "internalType": "address",
          "name": "from",
          "type": "address"
        },
        {
          "internalType": "address",
          "name": "to",
          "type": "address"
        },
        {
          "internalType": "uint256",
          "name": "tokenId",
          "type": "uint256"
        }
      ],
      "name": "transferFrom",
      "outputs": [],
      "stateMutability": "nonpayable",
      "type": "function"
    },
    {
      "inputs": [
        {
          "internalType": "address",
          "name": "newOwner",
          "type": "address"
        }
      ],
      "name": "transferOwnership",
      "outputs": [],
      "stateMutability": "nonpayable",
      "type": "function"
    },
    {
      "inputs": [],
      "name": "withdrawFunds",
      "outputs": [],
      "stateMutability": "nonpayable",
      "type": "function"
    }
  ],
  "bytecode": "0x6080604052655af3107a4000600a553480156200001b57600080fd5b506040518060400160405280600c81526020017f4d657a6f20446f6d61696e7300000000000000000000000000000000000000008152506040518060400160405280600381526020017f4d5a44000000000000000000000000000000000000000000000000000000000081525081600090816200009991906200042d565b508060019081620000ab91906200042d565b505050620000ce620000c2620000e560201b60201c565b620000ed60201b60201c565b620000df33620000ed60201b60201c565b62000514565b600033905090565b6000600660009054906101000a900473ffffffffffffffffffffffffffffffffffffffff16905081600660006101000a81548173ffffffffffffffffffffffffffffffffffffffff021916908373ffffffffffffffffffffffffffffffffffffffff1602179055508173ffffffffffffffffffffffffffffffffffffffff168173ffffffffffffffffffffffffffffffffffffffff167f8be0079c531659141344cd1fd0a4f28419497f9722a3daafe3b4186f6b6457e060405160405180910390a35050565b600081519050919050565b7f4e487b7100000000000000000000000000000000000000000000000000000000600052604160045260246000fd5b7f4e487b7100000000000000000000000000000000000000000000000000000000600052602260045260246000fd5b600060028204905060018216806200023557607f821691505b6020821081036200024b576200024a620001ed565b5b50919050565b60008190508160005260206000209050919050565b60006020601f8301049050919050565b600082821b905092915050565b600060088302620002b57fffffffffffffffffffffffffffffffffffffffffffffffffffffffffffffffff8262000276565b620002c1868362000276565b95508019841693508086168417925050509392505050565b6000819050919050565b6000819050919050565b60006200030e620003086200030284620002d9565b620002e3565b620002d9565b9050919050565b6000819050919050565b6200032a83620002ed565b62000342620003398262000315565b84845462000283565b825550505050565b600090565b620003596200034a565b620003668184846200031f565b505050565b5b818110156200038e57620003826000826200034f565b6001810190506200036c565b5050565b601f821115620003dd57620003a78162000251565b620003b28462000266565b81016020851015620003c2578190505b620003da620003d18562000266565b8301826200036b565b50505b505050565b600082821c905092915050565b60006200040260001984600802620003e2565b1980831691505092915050565b60006200041d8383620003ef565b9150826002028217905092915050565b6200043882620001b3565b67ffffffffffffffff811115620004545762000453620001be565b5b6200046082546200021c565b6200046d82828562000392565b600060209050601f831160018114620004a5576000841562000490578287015190505b6200049c85826200040f565b8655506200050c565b601f198416620004b58662000251565b60005b82811015620004df57848901518255600182019150602085019450602081019050620004b8565b86831015620004ff5784890151620004fb601f891682620003ef565b8355505b6001600288020188555050505b505050505050565b61339b80620005246000396000f3fe60806040526004361061014b5760003560e01c806375794a3c116100b6578063b88d4fde1161006f578063b88d4fde14610483578063bca6eec4146104ac578063c320c727146104e9578063c87b56dd14610512578063e985e9c51461054f578063f2fde38b1461058c5761014b565b806375794a3c146103805780638cd108de146103ab5780638da5cb5b146103e857806395d89b4114610413578063a22cb4651461043e578063a5cad08a146104675761014b565b806324600fc31161010857806324600fc314610272578063259701151461028957806342842e0e146102c65780636352211e146102ef57806370a082311461032c578063715018a6146103695761014b565b806301ffc9a71461015057806306fdde031461018d578063081812fc146101b8578063095ea7b3146101f557806314c44e091461021e57806323b872dd14610249575b600080fd5b34801561015c57600080fd5b5061017760048036038101906101729190611ff3565b6105b5565b604051610184919061203b565b60405180910390f35b34801561019957600080fd5b506101a2610697565b6040516101af91906120e6565b60405180910390f35b3480156101c457600080fd5b506101df60048036038101906101da919061213e565b610729565b6040516101ec91906121ac565b60405180910390f35b34801561020157600080fd5b5061021c600480360381019061021791906121f3565b61076f565b005b34801561022a57600080fd5b50610233610886565b6040516102409190612242565b60405180910390f35b34801561025557600080fd5b50610270600480360381019061026b919061225d565b61088c565b005b34801561027e57600080fd5b506102876108ec565b005b34801561029557600080fd5b506102b060048036038101906102ab91906123e5565b610944565b6040516102bd91906121ac565b60405180910390f35b3480156102d257600080fd5b506102ed60048036038101906102e8919061225d565b6109bc565b005b3480156102fb57600080fd5b506103166004803603810190610311919061213e565b6109dc565b60405161032391906121ac565b60405180910390f35b34801561033857600080fd5b50610353600480360381019061034e919061242e565b610a62565b6040516103609190612242565b60405180910390f35b34801561037557600080fd5b5061037e610b19565b005b34801561038c57600080fd5b50610395610b2d565b6040516103a29190612242565b60405180910390f35b3480156103b757600080fd5b506103d260048036038101906103cd919061213e565b610b33565b6040516103df91906120e6565b60405180910390f35b3480156103f457600080fd5b506103fd610bd3565b60405161040a91906121ac565b60405180910390f35b34801561041f57600080fd5b50610428610bfd565b60405161043591906120e6565b60405180910390f35b34801561044a57600080fd5b5061046560048036038101906104609190612487565b610c8f565b005b610481600480360381019061047c91906123e5565b610ca5565b005b34801561048f57600080fd5b506104aa60048036038101906104a59190612568565b610e54565b005b3480156104b857600080fd5b506104d360048036038101906104ce91906123e5565b610eb6565b6040516104e09190612242565b60405180910390f35b3480156104f557600080fd5b50610510600480360381019061050b919061213e565b610ee4565b005b34801561051e57600080fd5b506105396004803603810190610534919061213e565b610ef6565b60405161054691906120e6565b60405180910390f35b34801561055b57600080fd5b50610576600480360381019061057191906125eb565b610f5e565b604051610583919061203b565b60405180910390f35b34801561059857600080fd5b506105b360048036038101906105ae919061242e565b610ff2565b005b60007f80ac58cd000000000000000000000000000000000000000000000000000000007bffffffffffffffffffffffffffffffffffffffffffffffffffffffff1916827bffffffffffffffffffffffffffffffffffffffffffffffffffffffff1916148061068057507f5b5e139f000000000000000000000000000000000000000000000000000000007bffffffffffffffffffffffffffffffffffffffffffffffffffffffff1916827bffffffffffffffffffffffffffffffffffffffffffffffffffffffff1916145b80610690575061068f82611075565b5b9050919050565b6060600080546106a69061265a565b80601f01602080910402602001604051908101604052809291908181526020018280546106d29061265a565b801561071f5780601f106106f45761010080835404028352916020019161071f565b820191906000526020600020905b81548152906001019060200180831161070257829003601f168201915b5050505050905090565b6000610734826110df565b6004600083815260200190815260200160002060009054906101000a900473ffffffffffffffffffffffffffffffffffffffff169050919050565b600061077a826109dc565b90508073ffffffffffffffffffffffffffffffffffffffff168373ffffffffffffffffffffffffffffffffffffffff16036107ea576040517f08c379a00000000000000000000000000000000000000000000000000000000081526004016107e1906126fd565b60405180910390fd5b8073ffffffffffffffffffffffffffffffffffffffff1661080961112a565b73ffffffffffffffffffffffffffffffffffffffff16148061083857506108378161083261112a565b610f5e565b5b610877576040517f08c379a000000000000000000000000000000000000000000000000000000000815260040161086e9061278f565b60405180910390fd5b6108818383611132565b505050565b600a5481565b61089d61089761112a565b826111eb565b6108dc576040517f08c379a00000000000000000000000000000000000000000000000000000000081526004016108d390612821565b60405180910390fd5b6108e7838383611280565b505050565b6108f4611579565b6108fc610bd3565b73ffffffffffffffffffffffffffffffffffffffff166108fc479081150290604051600060405180830381858888f19350505050158015610941573d6000803e3d6000fd5b50565b600080600883604051610957919061287d565b9081526020016040518091039020549050600081036109ab576040517f08c379a00000000000000000000000000000000000000000000000000000000081526004016109a2906128e0565b60405180910390fd5b6109b4816109dc565b915050919050565b6109d783838360405180602001604052806000815250610e54565b505050565b6000806109e8836115f7565b9050600073ffffffffffffffffffffffffffffffffffffffff168173ffffffffffffffffffffffffffffffffffffffff1603610a59576040517f08c379a0000000000000000000000000000000000000000000000000000000008152600401610a509061294c565b60405180910390fd5b80915050919050565b60008073ffffffffffffffffffffffffffffffffffffffff168273ffffffffffffffffffffffffffffffffffffffff1603610ad2576040517f08c379a0000000000000000000000000000000000000000000000000000000008152600401610ac9906129de565b60405180910390fd5b600360008373ffffffffffffffffffffffffffffffffffffffff1673ffffffffffffffffffffffffffffffffffffffff168152602001908152602001600020549050919050565b610b21611579565b610b2b6000611634565b565b60075481565b60096020528060005260406000206000915090508054610b529061265a565b80601f0160208091040260200160405190810160405280929190818152602001828054610b7e9061265a565b8015610bcb5780601f10610ba057610100808354040283529160200191610bcb565b820191906000526020600020905b815481529060010190602001808311610bae57829003601f168201915b505050505081565b6000600660009054906101000a900473ffffffffffffffffffffffffffffffffffffffff16905090565b606060018054610c0c9061265a565b80601f0160208091040260200160405190810160405280929190818152602001828054610c389061265a565b8015610c855780601f10610c5a57610100808354040283529160200191610c85565b820191906000526020600020905b815481529060010190602001808311610c6857829003601f168201915b5050505050905090565b610ca1610c9a61112a565b83836116fa565b5050565b6000815111610ce9576040517f08c379a0000000000000000000000000000000000000000000000000000000008152600401610ce090612a4a565b60405180910390fd5b6000600882604051610cfb919061287d565b90815260200160405180910390205414610d4a576040517f08c379a0000000000000000000000000000000000000000000000000000000008152600401610d4190612ab6565b60405180910390fd5b600a54341015610d8f576040517f08c379a0000000000000000000000000000000000000000000000000000000008152600401610d8690612b22565b60405180910390fd5b6000600760008154610da090612b71565b919050819055905080600883604051610db9919061287d565b90815260200160405180910390208190555081600960008381526020019081526020016000209081610deb9190612d65565b50610df63382611866565b803373ffffffffffffffffffffffffffffffffffffffff1683604051610e1c919061287d565b60405180910390207f19b32006d377795e50309cbfef6336edf2dac8a41b8aa40093296ca5489b4d6760405160405180910390a45050565b610e65610e5f61112a565b836111eb565b610ea4576040517f08c379a0000000000000000000000000000000000000000000000000000000008152600401610e9b90612821565b60405180910390fd5b610eb084848484611884565b50505050565b6008818051602081018201805184825260208301602085012081835280955050505050506000915090505481565b610eec611579565b80600a8190555050565b6060610f01826110df565b6000610f0b6118e0565b90506000815111610f2b5760405180602001604052806000815250610f56565b80610f35846118f7565b604051602001610f46929190612e37565b6040516020818303038152906040525b915050919050565b6000600560008473ffffffffffffffffffffffffffffffffffffffff1673ffffffffffffffffffffffffffffffffffffffff16815260200190815260200160002060008373ffffffffffffffffffffffffffffffffffffffff1673ffffffffffffffffffffffffffffffffffffffff16815260200190815260200160002060009054906101000a900460ff16905092915050565b610ffa611579565b600073ffffffffffffffffffffffffffffffffffffffff168173ffffffffffffffffffffffffffffffffffffffff1603611069576040517f08c379a000000000000000000000000000000000000000000000000000000000815260040161106090612ecd565b60405180910390fd5b61107281611634565b50565b60007f01ffc9a7000000000000000000000000000000000000000000000000000000007bffffffffffffffffffffffffffffffffffffffffffffffffffffffff1916827bffffffffffffffffffffffffffffffffffffffffffffffffffffffff1916149050919050565b6110e8816119c5565b611127576040517f08c379a000000000000000000000000000000000000000000000000000000000815260040161111e9061294c565b60405180910390fd5b50565b600033905090565b816004600083815260200190815260200160002060006101000a81548173ffffffffffffffffffffffffffffffffffffffff021916908373ffffffffffffffffffffffffffffffffffffffff160217905550808273ffffffffffffffffffffffffffffffffffffffff166111a5836109dc565b73ffffffffffffffffffffffffffffffffffffffff167f8c5be1e5ebec7d5bd14f71427d1e84f3dd0314c0f7b2291e5b200ac8c7c3b92560405160405180910390a45050565b6000806111f7836109dc565b90508073ffffffffffffffffffffffffffffffffffffffff168473ffffffffffffffffffffffffffffffffffffffff16148061123957506112388185610f5e565b5b8061127757508373ffffffffffffffffffffffffffffffffffffffff1661125f84610729565b73ffffffffffffffffffffffffffffffffffffffff16145b91505092915050565b8273ffffffffffffffffffffffffffffffffffffffff166112a0826109dc565b73ffffffffffffffffffffffffffffffffffffffff16146112f6576040517f08c379a00000000000000000000000000000000000000000000000000000000081526004016112ed90612f5f565b60405180910390fd5b600073ffffffffffffffffffffffffffffffffffffffff168273ffffffffffffffffffffffffffffffffffffffff1603611365576040517f08c379a000000000000000000000000000000000000000000000000000000000815260040161135c90612ff1565b60405180910390fd5b6113728383836001611a06565b8273ffffffffffffffffffffffffffffffffffffffff16611392826109dc565b73ffffffffffffffffffffffffffffffffffffffff16146113e8576040517f08c379a00000000000000000000000000000000000000000000000000000000081526004016113df90612f5f565b60405180910390fd5b6004600082815260200190815260200160002060006101000a81549073ffffffffffffffffffffffffffffffffffffffff02191690556001600360008573ffffffffffffffffffffffffffffffffffffffff1673ffffffffffffffffffffffffffffffffffffffff168152602001908152602001600020600082825403925050819055506001600360008473ffffffffffffffffffffffffffffffffffffffff1673ffffffffffffffffffffffffffffffffffffffff16815260200190815260200160002060008282540192505081905550816002600083815260200190815260200160002060006101000a81548173ffffffffffffffffffffffffffffffffffffffff021916908373ffffffffffffffffffffffffffffffffffffffff160217905550808273ffffffffffffffffffffffffffffffffffffffff168473ffffffffffffffffffffffffffffffffffffffff167fddf252ad1be2c89b69c2b068fc378daa952ba7f163c4a11628f55a4df523b3ef60405160405180910390a46115748383836001611a0c565b505050565b61158161112a565b73ffffffffffffffffffffffffffffffffffffffff1661159f610bd3565b73ffffffffffffffffffffffffffffffffffffffff16146115f5576040517f08c379a00000000000000000000000000000000000000000000000000000000081526004016115ec9061305d565b60405180910390fd5b565b60006002600083815260200190815260200160002060009054906101000a900473ffffffffffffffffffffffffffffffffffffffff169050919050565b6000600660009054906101000a900473ffffffffffffffffffffffffffffffffffffffff16905081600660006101000a81548173ffffffffffffffffffffffffffffffffffffffff021916908373ffffffffffffffffffffffffffffffffffffffff1602179055508173ffffffffffffffffffffffffffffffffffffffff168173ffffffffffffffffffffffffffffffffffffffff167f8be0079c531659141344cd1fd0a4f28419497f9722a3daafe3b4186f6b6457e060405160405180910390a35050565b8173ffffffffffffffffffffffffffffffffffffffff168373ffffffffffffffffffffffffffffffffffffffff1603611768576040517f08c379a000000000000000000000000000000000000000000000000000000000815260040161175f906130c9565b60405180910390fd5b80600560008573ffffffffffffffffffffffffffffffffffffffff1673ffffffffffffffffffffffffffffffffffffffff16815260200190815260200160002060008473ffffffffffffffffffffffffffffffffffffffff1673ffffffffffffffffffffffffffffffffffffffff16815260200190815260200160002060006101000a81548160ff0219169083151502179055508173ffffffffffffffffffffffffffffffffffffffff168373ffffffffffffffffffffffffffffffffffffffff167f17307eab39ab6107e8899845ad3d59bd9653f200f220920489ca2b5937696c3183604051611859919061203b565b60405180910390a3505050565b611880828260405180602001604052806000815250611a12565b5050565b61188f848484611280565b61189b84848484611a6d565b6118da576040517f08c379a00000000000000000000000000000000000000000000000000000000081526004016118d19061315b565b60405180910390fd5b50505050565b606060405180602001604052806000815250905090565b60606000600161190684611bf4565b01905060008167ffffffffffffffff811115611925576119246122ba565b5b6040519080825280601f01601f1916602001820160405280156119575781602001600182028036833780820191505090505b509050600082602001820190505b6001156119ba578080600190039150507f3031323334353637383961626364656600000000000000000000000000000000600a86061a8153600a85816119ae576119ad61317b565b5b04945060008503611965575b819350505050919050565b60008073ffffffffffffffffffffffffffffffffffffffff166119e7836115f7565b73ffffffffffffffffffffffffffffffffffffffff1614159050919050565b50505050565b50505050565b611a1c8383611d47565b611a296000848484611a6d565b611a68576040517f08c379a0000000000000000000000000000000000000000000000000000000008152600401611a5f9061315b565b60405180910390fd5b505050565b6000611a8e8473ffffffffffffffffffffffffffffffffffffffff16611f64565b15611be7578373ffffffffffffffffffffffffffffffffffffffff1663150b7a02611ab761112a565b8786866040518563ffffffff1660e01b8152600401611ad994939291906131ff565b6020604051808303816000875af1925050508015611b1557506040513d601f19601f82011682018060405250810190611b129190613260565b60015b611b97573d8060008114611b45576040519150601f19603f3d011682016040523d82523d6000602084013e611b4a565b606091505b506000815103611b8f576040517f08c379a0000000000000000000000000000000000000000000000000000000008152600401611b869061315b565b60405180910390fd5b805181602001fd5b63150b7a0260e01b7bffffffffffffffffffffffffffffffffffffffffffffffffffffffff1916817bffffffffffffffffffffffffffffffffffffffffffffffffffffffff191614915050611bec565b600190505b949350505050565b600080600090507a184f03e93ff9f4daa797ed6e38ed64bf6a1f0100000000000000008310611c52577a184f03e93ff9f4daa797ed6e38ed64bf6a1f0100000000000000008381611c4857611c4761317b565b5b0492506040810190505b6d04ee2d6d415b85acef81000000008310611c8f576d04ee2d6d415b85acef81000000008381611c8557611c8461317b565b5b0492506020810190505b662386f26fc100008310611cbe57662386f26fc100008381611cb457611cb361317b565b5b0492506010810190505b6305f5e1008310611ce7576305f5e1008381611cdd57611cdc61317b565b5b0492506008810190505b6127108310611d0c576127108381611d0257611d0161317b565b5b0492506004810190505b60648310611d2f5760648381611d2557611d2461317b565b5b0492506002810190505b600a8310611d3e576001810190505b80915050919050565b600073ffffffffffffffffffffffffffffffffffffffff168273ffffffffffffffffffffffffffffffffffffffff1603611db6576040517f08c379a0000000000000000000000000000000000000000000000000000000008152600401611dad906132d9565b60405180910390fd5b611dbf816119c5565b15611dff576040517f08c379a0000000000000000000000000000000000000000000000000000000008152600401611df690613345565b60405180910390fd5b611e0d600083836001611a06565b611e16816119c5565b15611e56576040517f08c379a0000000000000000000000000000000000000000000000000000000008152600401611e4d90613345565b60405180910390fd5b6001600360008473ffffffffffffffffffffffffffffffffffffffff1673ffffffffffffffffffffffffffffffffffffffff16815260200190815260200160002060008282540192505081905550816002600083815260200190815260200160002060006101000a81548173ffffffffffffffffffffffffffffffffffffffff021916908373ffffffffffffffffffffffffffffffffffffffff160217905550808273ffffffffffffffffffffffffffffffffffffffff16600073ffffffffffffffffffffffffffffffffffffffff167fddf252ad1be2c89b69c2b068fc378daa952ba7f163c4a11628f55a4df523b3ef60405160405180910390a4611f60600083836001611a0c565b5050565b6000808273ffffffffffffffffffffffffffffffffffffffff163b119050919050565b6000604051905090565b600080fd5b600080fd5b60007fffffffff0000000000000000000000000000000000000000000000000000000082169050919050565b611fd081611f9b565b8114611fdb57600080fd5b50565b600081359050611fed81611fc7565b92915050565b60006020828403121561200957612008611f91565b5b600061201784828501611fde565b91505092915050565b60008115159050919050565b61203581612020565b82525050565b6000602082019050612050600083018461202c565b92915050565b600081519050919050565b600082825260208201905092915050565b60005b83811015612090578082015181840152602081019050612075565b60008484015250505050565b6000601f19601f8301169050919050565b60006120b882612056565b6120c28185612061565b93506120d2818560208601612072565b6120db8161209c565b840191505092915050565b6000602082019050818103600083015261210081846120ad565b905092915050565b6000819050919050565b61211b81612108565b811461212657600080fd5b50565b60008135905061213881612112565b92915050565b60006020828403121561215457612153611f91565b5b600061216284828501612129565b91505092915050565b600073ffffffffffffffffffffffffffffffffffffffff82169050919050565b60006121968261216b565b9050919050565b6121a68161218b565b82525050565b60006020820190506121c1600083018461219d565b92915050565b6121d08161218b565b81146121db57600080fd5b50565b6000813590506121ed816121c7565b92915050565b6000806040838503121561220a57612209611f91565b5b6000612218858286016121de565b925050602061222985828601612129565b9150509250929050565b61223c81612108565b82525050565b60006020820190506122576000830184612233565b92915050565b60008060006060848603121561227657612275611f91565b5b6000612284868287016121de565b9350506020612295868287016121de565b92505060406122a686828701612129565b9150509250925092565b600080fd5b600080fd5b7f4e487b7100000000000000000000000000000000000000000000000000000000600052604160045260246000fd5b6122f28261209c565b810181811067ffffffffffffffff82111715612311576123106122ba565b5b80604052505050565b6000612324611f87565b905061233082826122e9565b919050565b600067ffffffffffffffff8211156123505761234f6122ba565b5b6123598261209c565b9050602081019050919050565b82818337600083830152505050565b600061238861238384612335565b61231a565b9050828152602081018484840111156123a4576123a36122b5565b5b6123af848285612366565b509392505050565b600082601f8301126123cc576123cb6122b0565b5b81356123dc848260208601612375565b91505092915050565b6000602082840312156123fb576123fa611f91565b5b600082013567ffffffffffffffff81111561241957612418611f96565b5b612425848285016123b7565b91505092915050565b60006020828403121561244457612443611f91565b5b6000612452848285016121de565b91505092915050565b61246481612020565b811461246f57600080fd5b50565b6000813590506124818161245b565b92915050565b6000806040838503121561249e5761249d611f91565b5b60006124ac858286016121de565b92505060206124bd85828601612472565b9150509250929050565b600067ffffffffffffffff8211156124e2576124e16122ba565b5b6124eb8261209c565b9050602081019050919050565b600061250b612506846124c7565b61231a565b905082815260208101848484011115612527576125266122b5565b5b612532848285612366565b509392505050565b600082601f83011261254f5761254e6122b0565b5b813561255f8482602086016124f8565b91505092915050565b6000806000806080858703121561258257612581611f91565b5b6000612590878288016121de565b94505060206125a1878288016121de565b93505060406125b287828801612129565b925050606085013567ffffffffffffffff8111156125d3576125d2611f96565b5b6125df8782880161253a565b91505092959194509250565b6000806040838503121561260257612601611f91565b5b6000612610858286016121de565b9250506020612621858286016121de565b9150509250929050565b7f4e487b7100000000000000000000000000000000000000000000000000000000600052602260045260246000fd5b6000600282049050600182168061267257607f821691505b6020821081036126855761268461262b565b5b50919050565b7f4552433732313a20617070726f76616c20746f2063757272656e74206f776e6560008201527f7200000000000000000000000000000000000000000000000000000000000000602082015250565b60006126e7602183612061565b91506126f28261268b565b604082019050919050565b60006020820190508181036000830152612716816126da565b9050919050565b7f4552433732313a20617070726f76652063616c6c6572206973206e6f7420746f60008201527f6b656e206f776e6572206f7220617070726f76656420666f7220616c6c000000602082015250565b6000612779603d83612061565b91506127848261271d565b604082019050919050565b600060208201905081810360008301526127a88161276c565b9050919050565b7f4552433732313a2063616c6c6572206973206e6f7420746f6b656e206f776e6560008201527f72206f7220617070726f76656400000000000000000000000000000000000000602082015250565b600061280b602d83612061565b9150612816826127af565b604082019050919050565b6000602082019050818103600083015261283a816127fe565b9050919050565b600081905092915050565b600061285782612056565b6128618185612841565b9350612871818560208601612072565b80840191505092915050565b6000612889828461284c565b915081905092915050565b7f446f6d61696e206e6f7420726567697374657265640000000000000000000000600082015250565b60006128ca601583612061565b91506128d582612894565b602082019050919050565b600060208201905081810360008301526128f9816128bd565b9050919050565b7f4552433732313a20696e76616c696420746f6b656e2049440000000000000000600082015250565b6000612936601883612061565b915061294182612900565b602082019050919050565b6000602082019050818103600083015261296581612929565b9050919050565b7f4552433732313a2061646472657373207a65726f206973206e6f74206120766160008201527f6c6964206f776e65720000000000000000000000000000000000000000000000602082015250565b60006129c8602983612061565b91506129d38261296c565b604082019050919050565b600060208201905081810360008301526129f7816129bb565b9050919050565b7f446f6d61696e206e616d652063616e6e6f7420626520656d7074790000000000600082015250565b6000612a34601b83612061565b9150612a3f826129fe565b602082019050919050565b60006020820190508181036000830152612a6381612a27565b9050919050565b7f446f6d61696e20616c7265616479207265676973746572656400000000000000600082015250565b6000612aa0601983612061565b9150612aab82612a6a565b602082019050919050565b60006020820190508181036000830152612acf81612a93565b9050919050565b7f496e73756666696369656e74206665652070726f766964656400000000000000600082015250565b6000612b0c601983612061565b9150612b1782612ad6565b602082019050919050565b60006020820190508181036000830152612b3b81612aff565b9050919050565b7f4e487b7100000000000000000000000000000000000000000000000000000000600052601160045260246000fd5b6000612b7c82612108565b91507fffffffffffffffffffffffffffffffffffffffffffffffffffffffffffffffff8203612bae57612bad612b42565b5b600182019050919050565b60008190508160005260206000209050919050565b60006020601f8301049050919050565b600082821b905092915050565b600060088302612c1b7fffffffffffffffffffffffffffffffffffffffffffffffffffffffffffffffff82612bde565b612c258683612bde565b95508019841693508086168417925050509392505050565b6000819050919050565b6000612c62612c5d612c5884612108565b612c3d565b612108565b9050919050565b6000819050919050565b612c7c83612c47565b612c90612c8882612c69565b848454612beb565b825550505050565b600090565b612ca5612c98565b612cb0818484612c73565b505050565b5b81811015612cd457612cc9600082612c9d565b600181019050612cb6565b5050565b601f821115612d1957612cea81612bb9565b612cf384612bce565b81016020851015612d02578190505b612d16612d0e85612bce565b830182612cb5565b50505b505050565b600082821c905092915050565b6000612d3c60001984600802612d1e565b1980831691505092915050565b6000612d558383612d2b565b9150826002028217905092915050565b612d6e82612056565b67ffffffffffffffff811115612d8757612d866122ba565b5b612d91825461265a565b612d9c828285612cd8565b600060209050601f831160018114612dcf5760008415612dbd578287015190505b612dc78582612d49565b865550612e2f565b601f198416612ddd86612bb9565b60005b82811015612e0557848901518255600182019150602085019450602081019050612de0565b86831015612e225784890151612e1e601f891682612d2b565b8355505b6001600288020188555050505b505050505050565b6000612e43828561284c565b9150612e4f828461284c565b91508190509392505050565b7f4f776e61626c653a206e6577206f776e657220697320746865207a65726f206160008201527f6464726573730000000000000000000000000000000000000000000000000000602082015250565b6000612eb7602683612061565b9150612ec282612e5b565b604082019050919050565b60006020820190508181036000830152612ee681612eaa565b9050919050565b7f4552433732313a207472616e736665722066726f6d20696e636f72726563742060008201527f6f776e6572000000000000000000000000000000000000000000000000000000602082015250565b6000612f49602583612061565b9150612f5482612eed565b604082019050919050565b60006020820190508181036000830152612f7881612f3c565b9050919050565b7f4552433732313a207472616e7366657220746f20746865207a65726f2061646460008201527f7265737300000000000000000000000000000000000000000000000000000000602082015250565b6000612fdb602483612061565b9150612fe682612f7f565b604082019050919050565b6000602082019050818103600083015261300a81612fce565b9050919050565b7f4f776e61626c653a2063616c6c6572206973206e6f7420746865206f776e6572600082015250565b6000613047602083612061565b915061305282613011565b602082019050919050565b600060208201905081810360008301526130768161303a565b9050919050565b7f4552433732313a20617070726f766520746f2063616c6c657200000000000000600082015250565b60006130b3601983612061565b91506130be8261307d565b602082019050919050565b600060208201905081810360008301526130e2816130a6565b9050919050565b7f4552433732313a207472616e7366657220746f206e6f6e20455243373231526560008201527f63656976657220696d706c656d656e7465720000000000000000000000000000602082015250565b6000613145603283612061565b9150613150826130e9565b604082019050919050565b6000602082019050818103600083015261317481613138565b9050919050565b7f4e487b7100000000000000000000000000000000000000000000000000000000600052601260045260246000fd5b600081519050919050565b600082825260208201905092915050565b60006131d1826131aa565b6131db81856131b5565b93506131eb818560208601612072565b6131f48161209c565b840191505092915050565b6000608082019050613214600083018761219d565b613221602083018661219d565b61322e6040830185612233565b818103606083015261324081846131c6565b905095945050505050565b60008151905061325a81611fc7565b92915050565b60006020828403121561327657613275611f91565b5b60006132848482850161324b565b91505092915050565b7f4552433732313a206d696e7420746f20746865207a65726f2061646472657373600082015250565b60006132c3602083612061565b91506132ce8261328d565b602082019050919050565b600060208201905081810360008301526132f2816132b6565b9050919050565b7f4552433732313a20746f6b656e20616c7265616479206d696e74656400000000600082015250565b600061332f601c83612061565b915061333a826132f9565b602082019050919050565b6000602082019050818103600083015261335e81613322565b905091905056fea264697066735822122012f757502a174d68b5d6ab07e905afebe10ff9bb570fd9c9175553fe4c999da764736f6c63430008140033",
  "linkReferences": {},
  "deployedLinkReferences": {}
}