{
  "_format": "hh-sol-artifact-1",
  "contractName": "MezoDomains",
  "sourceName": "contracts/MezoDomains.sol",
  "abi": [
    {
      "inputs": [],
      "stateMutability": "nonpayable",
      "type": "constructor"
    },
    {
      "anonymous": false,
      "inputs": [
        {
          "indexed": true,
          "internalType": "address",
          "name": "owner",
          "type": "address"
        },
        {
          "indexed": true,
          "internalType": "address",
          "name": "approved",
          "type": "address"
        },
        {
          "indexed": true,
          "internalType": "uint256",
          "name": "tokenId",
          "type": "uint256"
        }
      ],
      "name": "Approval",
      "type": "event"
    },
    {
      "anonymous": false,
      "inputs": [
        {
          "indexed": true,
          "internalType": "address",
          "name": "owner",
          "type": "address"
        },
        {
          "indexed": true,
          "internalType": "address",
          "name": "operator",
          "type": "address"
        },
        {
          "indexed": false,
          "internalType": "bool",
          "name": "approved",
          "type": "bool"
        }
      ],
      "name": "ApprovalForAll",
      "type": "event"
    },
    {
      "anonymous": false,
      "inputs": [
        {
          "indexed": true,
          "internalType": "string",
          "name": "domainName",
          "type": "string"
        },
        {
          "indexed": true,
          "internalType": "address",
          "name": "owner",
          "type": "address"
        },
        {
          "indexed": true,
          "internalType": "uint256",
          "name": "tokenId",
          "type": "uint256"
        }
      ],
      "name": "DomainRegistered",
      "type": "event"
    },
    {
      "anonymous": false,
      "inputs": [
        {
          "indexed": true,
          "internalType": "address",
          "name": "previousOwner",
          "type": "address"
        },
        {
          "indexed": true,
          "internalType": "address",
          "name": "newOwner",
          "type": "address"
        }
      ],
      "name": "OwnershipTransferred",
      "type": "event"
    },
    {
      "anonymous": false,
      "inputs": [
        {
          "indexed": true,
          "internalType": "address",
          "name": "from",
          "type": "address"
        },
        {
          "indexed": true,
          "internalType": "address",
          "name": "to",
          "type": "address"
        },
        {
          "indexed": true,
          "internalType": "uint256",
          "name": "tokenId",
          "type": "uint256"
        }
      ],
      "name": "Transfer",
      "type": "event"
    },
    {
      "inputs": [
        {
          "internalType": "address",
          "name": "to",
          "type": "address"
        },
        {
          "internalType": "uint256",
          "name": "tokenId",
          "type": "uint256"
        }
      ],
      "name": "approve",
      "outputs": [],
      "stateMutability": "nonpayable",
      "type": "function"
    },
    {
      "inputs": [
        {
          "internalType": "address",
          "name": "owner",
          "type": "address"
        }
      ],
      "name": "balanceOf",
      "outputs": [
        {
          "internalType": "uint256",
          "name": "",
          "type": "uint256"
        }
      ],
      "stateMutability": "view",
      "type": "function"
    },
    {
      "inputs": [
        {
          "internalType": "string",
          "name": "",
          "type": "string"
        }
      ],
      "name": "domainToTokenId",
      "outputs": [
        {
          "internalType": "uint256",
          "name": "",
          "type": "uint256"
        }
      ],
      "stateMutability": "view",
      "type": "function"
    },
    {
      "inputs": [
        {
          "internalType": "uint256",
          "name": "tokenId",
          "type": "uint256"
        }
      ],
      "name": "getApproved",
      "outputs": [
        {
          "internalType": "address",
          "name": "",
          "type": "address"
        }
      ],
      "stateMutability": "view",
      "type": "function"
    },
    {
      "inputs": [
        {
          "internalType": "string",
          "name": "_domainName",
          "type": "string"
        }
      ],
      "name": "getDomainOwner",
      "outputs": [
        {
          "internalType": "address",
          "name": "",
          "type": "address"
        }
      ],
      "stateMutability": "view",
      "type": "function"
    },
    {
      "inputs": [
        {
          "internalType": "address",
          "name": "owner",
          "type": "address"
        },
        {
          "internalType": "address",
          "name": "operator",
          "type": "address"
        }
      ],
      "name": "isApprovedForAll",
      "outputs": [
        {
          "internalType": "bool",
          "name": "",
          "type": "bool"
        }
      ],
      "stateMutability": "view",
      "type": "function"
    },
    {
      "inputs": [],
      "name": "name",
      "outputs": [
        {
          "internalType": "string",
          "name": "",
          "type": "string"
        }
      ],
      "stateMutability": "view",
      "type": "function"
    },
    {
      "inputs": [],
      "name": "nextTokenId",
      "outputs": [
        {
          "internalType": "uint256",
          "name": "",
          "type": "uint256"
        }
      ],
      "stateMutability": "view",
      "type": "function"
    },
    {
      "inputs": [],
      "name": "owner",
      "outputs": [
        {
          "internalType": "address",
          "name": "",
          "type": "address"
        }
      ],
      "stateMutability": "view",
      "type": "function"
    },
    {
      "inputs": [
        {
          "internalType": "uint256",
          "name": "tokenId",
          "type": "uint256"
        }
      ],
      "name": "ownerOf",
      "outputs": [
        {
          "internalType": "address",
          "name": "",
          "type": "address"
        }
      ],
      "stateMutability": "view",
      "type": "function"
    },
    {
      "inputs": [
        {
          "internalType": "string",
          "name": "_domainName",
          "type": "string"
        }
      ],
      "name": "registerDomain",
      "outputs": [],
      "stateMutability": "payable",
      "type": "function"
    },
    {
      "inputs": [
        {
          "internalType": "string",
          "name": "_domainName",
          "type": "string"
        },
        {
          "internalType": "address",
          "name": "_to",
          "type": "address"
        }
      ],
      "name": "registerDomainFor",
      "outputs": [],
      "stateMutability": "nonpayable",
      "type": "function"
    },
    {
      "inputs": [],
      "name": "registrationFee",
      "outputs": [
        {
          "internalType": "uint256",
          "name": "",
          "type": "uint256"
        }
      ],
      "stateMutability": "view",
      "type": "function"
    },
    {
      "inputs": [],
      "name": "renounceOwnership",
      "outputs": [],
      "stateMutability": "nonpayable",
      "type": "function"
    },
    {
      "inputs": [
        {
          "internalType": "address",
          "name": "from",
          "type": "address"
        },
        {
          "internalType": "address",
          "name": "to",
          "type": "address"
        },
        {
          "internalType": "uint256",
          "name": "tokenId",
          "type": "uint256"
        }
      ],
      "name": "safeTransferFrom",
      "outputs": [],
      "stateMutability": "nonpayable",
      "type": "function"
    },
    {
      "inputs": [
        {
          "internalType": "address",
          "name": "from",
          "type": "address"
        },
        {
          "internalType": "address",
          "name": "to",
          "type": "address"
        },
        {
          "internalType": "uint256",
          "name": "tokenId",
          "type": "uint256"
        },
        {
          "internalType": "bytes",
          "name": "data",
          "type": "bytes"
        }
      ],
      "name": "safeTransferFrom",
      "outputs": [],
      "stateMutability": "nonpayable",
      "type": "function"
    },
    {
      "inputs": [
        {
          "internalType": "address",
          "name": "operator",
          "type": "address"
        },
        {
          "internalType": "bool",
          "name": "approved",
          "type": "bool"
        }
      ],
      "name": "setApprovalForAll",
      "outputs": [],
      "stateMutability": "nonpayable",
      "type": "function"
    },
    {
      "inputs": [
        {
          "internalType": "uint256",
          "name": "_newFee",
          "type": "uint256"
        }
      ],
      "name": "setRegistrationFee",
      "outputs": [],
      "stateMutability": "nonpayable",
      "type": "function"
    },
    {
      "inputs": [
        {
          "internalType": "bytes4",
          "name": "interfaceId",
          "type": "bytes4"
        }
      ],
      "name": "supportsInterface",
      "outputs": [
        {
          "internalType": "bool",
          "name": "",
          "type": "bool"
        }
      ],
      "stateMutability": "view",
      "type": "function"
    },
    {
      "inputs": [],
      "name": "symbol",
      "outputs": [
        {
          "internalType": "string",
          "name": "",
          "type": "string"
        }
      ],
      "stateMutability": "view",
      "type": "function"
    },
    {
      "inputs": [
        {
          "internalType": "uint256",
          "name": "",
          "type": "uint256"
        }
      ],
      "name": "tokenIdToDomain",
      "outputs": [
        {
          "internalType": "string",
          "name": "",
          "type": "string"
        }
      ],
      "stateMutability": "view",
      "type": "function"
    },
    {
      "inputs": [
        {
          "internalType": "uint256",
          "name": "tokenId",
          "type": "uint256"
        }
      ],
      "name": "tokenURI",
      "outputs": [
        {
          "internalType": "string",
          "name": "",
          "type": "string"
        }
      ],
      "stateMutability": "view",
      "type": "function"
    },
    {
      "inputs": [
        {
          "internalType": "address",
          "name": "from",
          "type": "address"
        },
        {
          "internalType": "address",
          "name": "to",
          "type": "address"
        },
        {
          "internalType": "uint256",
          "name": "tokenId",
          "type": "uint256"
        }
      ],
      "name": "transferFrom",
      "outputs": [],
      "stateMutability": "nonpayable",
      "type": "function"
    },
    {
      "inputs": [
        {
          "internalType": "address",
          "name": "newOwner",
          "type": "address"
        }
      ],
      "name": "transferOwnership",
      "outputs": [],
      "stateMutability": "nonpayable",
      "type": "function"
    },
    {
      "inputs": [],
      "name": "withdrawFunds",
      "outputs": [],
      "stateMutability": "nonpayable",
      "type": "function"
    }
  ],
  "bytecode": "0x6080604052655af3107a4000600a553480156200001b57600080fd5b506040518060400160405280600c81526020017f4d657a6f20446f6d61696e7300000000000000000000000000000000000000008152506040518060400160405280600381526020017f4d5a44000000000000000000000000000000000000000000000000000000000081525081600090816200009991906200042d565b508060019081620000ab91906200042d565b505050620000ce620000c2620000e560201b60201c565b620000ed60201b60201c565b620000df33620000ed60201b60201c565b62000514565b600033905090565b6000600660009054906101000a900473ffffffffffffffffffffffffffffffffffffffff16905081600660006101000a81548173ffffffffffffffffffffffffffffffffffffffff021916908373ffffffffffffffffffffffffffffffffffffffff1602179055508173ffffffffffffffffffffffffffffffffffffffff168173ffffffffffffffffffffffffffffffffffffffff167f8be0079c531659141344cd1fd0a4f28419497f9722a3daafe3b4186f6b6457e060405160405180910390a35050565b600081519050919050565b7f4e487b7100000000000000000000000000000000000000000000000000000000600052604160045260246000fd5b7f4e487b7100000000000000000000000000000000000000000000000000000000600052602260045260246000fd5b600060028204905060018216806200023557607f821691505b6020821081036200024b576200024a620001ed565b5b50919050565b60008190508160005260206000209050919050565b60006020601f8301049050919050565b600082821b905092915050565b600060088302620002b57fffffffffffffffffffffffffffffffffffffffffffffffffffffffffffffffff8262000276565b620002c1868362000276565b95508019841693508086168417925050509392505050565b6000819050919050565b6000819050919050565b60006200030e620003086200030284620002d9565b620002e3565b620002d9565b9050919050565b6000819050919050565b6200032a83620002ed565b62000342620003398262000315565b84845462000283565b825550505050565b600090565b620003596200034a565b620003668184846200031f565b505050565b5b818110156200038e57620003826000826200034f565b6001810190506200036c565b5050565b601f821115620003dd57620003a78162000251565b620003b28462000266565b81016020851015620003c2578190505b620003da620003d18562000266565b8301826200036b565b50505b505050565b600082821c905092915050565b60006200040260001984600802620003e2565b1980831691505092915050565b60006200041d8383620003ef565b9150826002028217905092915050565b6200043882620001b3565b67ffffffffffffffff811115620004545762000453620001be565b5b6200046082546200021c565b6200046d82828562000392565b600060209050601f831160018114620004a5576000841562000490578287015190505b6200049c85826200040f565b8655506200050c565b601f198416620004b58662000251565b60005b82811015620004df57848901518255600182019150602085019450602081019050620004b8565b86831015620004ff5784890151620004fb601f891682620003ef565b8355505b6001600288020188555050505b505050505050565b61353a80620005246000396000f3fe6080604052600436106101665760003560e01c806375794a3c116100d1578063b88d4fde1161008a578063c87b56dd11610064578063c87b56dd1461052d578063e985e9c51461056a578063f2fde38b146105a7578063f3103730146105d057610166565b8063b88d4fde1461049e578063bca6eec4146104c7578063c320c7271461050457610166565b806375794a3c1461039b5780638cd108de146103c65780638da5cb5b1461040357806395d89b411461042e578063a22cb46514610459578063a5cad08a1461048257610166565b806324600fc31161012357806324600fc31461028d57806325970115146102a457806342842e0e146102e15780636352211e1461030a57806370a0823114610347578063715018a61461038457610166565b806301ffc9a71461016b57806306fdde03146101a8578063081812fc146101d3578063095ea7b31461021057806314c44e091461023957806323b872dd14610264575b600080fd5b34801561017757600080fd5b50610192600480360381019061018d91906120ca565b6105f9565b60405161019f9190612112565b60405180910390f35b3480156101b457600080fd5b506101bd6106db565b6040516101ca91906121bd565b60405180910390f35b3480156101df57600080fd5b506101fa60048036038101906101f59190612215565b61076d565b6040516102079190612283565b60405180910390f35b34801561021c57600080fd5b50610237600480360381019061023291906122ca565b6107b3565b005b34801561024557600080fd5b5061024e6108ca565b60405161025b9190612319565b60405180910390f35b34801561027057600080fd5b5061028b60048036038101906102869190612334565b6108d0565b005b34801561029957600080fd5b506102a2610930565b005b3480156102b057600080fd5b506102cb60048036038101906102c691906124bc565b610988565b6040516102d89190612283565b60405180910390f35b3480156102ed57600080fd5b5061030860048036038101906103039190612334565b610a00565b005b34801561031657600080fd5b50610331600480360381019061032c9190612215565b610a20565b60405161033e9190612283565b60405180910390f35b34801561035357600080fd5b5061036e60048036038101906103699190612505565b610aa6565b60405161037b9190612319565b60405180910390f35b34801561039057600080fd5b50610399610b5d565b005b3480156103a757600080fd5b506103b0610b71565b6040516103bd9190612319565b60405180910390f35b3480156103d257600080fd5b506103ed60048036038101906103e89190612215565b610b77565b6040516103fa91906121bd565b60405180910390f35b34801561040f57600080fd5b50610418610c17565b6040516104259190612283565b60405180910390f35b34801561043a57600080fd5b50610443610c41565b60405161045091906121bd565b60405180910390f35b34801561046557600080fd5b50610480600480360381019061047b919061255e565b610cd3565b005b61049c600480360381019061049791906124bc565b610ce9565b005b3480156104aa57600080fd5b506104c560048036038101906104c0919061263f565b610d3b565b005b3480156104d357600080fd5b506104ee60048036038101906104e991906124bc565b610d9d565b6040516104fb9190612319565b60405180910390f35b34801561051057600080fd5b5061052b60048036038101906105269190612215565b610dcb565b005b34801561053957600080fd5b50610554600480360381019061054f9190612215565b610ddd565b60405161056191906121bd565b60405180910390f35b34801561057657600080fd5b50610591600480360381019061058c91906126c2565b610e45565b60405161059e9190612112565b60405180910390f35b3480156105b357600080fd5b506105ce60048036038101906105c99190612505565b610ed9565b005b3480156105dc57600080fd5b506105f760048036038101906105f29190612702565b610f5c565b005b60007f80ac58cd000000000000000000000000000000000000000000000000000000007bffffffffffffffffffffffffffffffffffffffffffffffffffffffff1916827bffffffffffffffffffffffffffffffffffffffffffffffffffffffff191614806106c457507f5b5e139f000000000000000000000000000000000000000000000000000000007bffffffffffffffffffffffffffffffffffffffffffffffffffffffff1916827bffffffffffffffffffffffffffffffffffffffffffffffffffffffff1916145b806106d457506106d382610f72565b5b9050919050565b6060600080546106ea9061278d565b80601f01602080910402602001604051908101604052809291908181526020018280546107169061278d565b80156107635780601f1061073857610100808354040283529160200191610763565b820191906000526020600020905b81548152906001019060200180831161074657829003601f168201915b5050505050905090565b600061077882610fdc565b6004600083815260200190815260200160002060009054906101000a900473ffffffffffffffffffffffffffffffffffffffff169050919050565b60006107be82610a20565b90508073ffffffffffffffffffffffffffffffffffffffff168373ffffffffffffffffffffffffffffffffffffffff160361082e576040517f08c379a000000000000000000000000000000000000000000000000000000000815260040161082590612830565b60405180910390fd5b8073ffffffffffffffffffffffffffffffffffffffff1661084d611027565b73ffffffffffffffffffffffffffffffffffffffff16148061087c575061087b81610876611027565b610e45565b5b6108bb576040517f08c379a00000000000000000000000000000000000000000000000000000000081526004016108b2906128c2565b60405180910390fd5b6108c5838361102f565b505050565b600a5481565b6108e16108db611027565b826110e8565b610920576040517f08c379a000000000000000000000000000000000000000000000000000000000815260040161091790612954565b60405180910390fd5b61092b83838361117d565b505050565b610938611476565b610940610c17565b73ffffffffffffffffffffffffffffffffffffffff166108fc479081150290604051600060405180830381858888f19350505050158015610985573d6000803e3d6000fd5b50565b60008060088360405161099b91906129b0565b9081526020016040518091039020549050600081036109ef576040517f08c379a00000000000000000000000000000000000000000000000000000000081526004016109e690612a13565b60405180910390fd5b6109f881610a20565b915050919050565b610a1b83838360405180602001604052806000815250610d3b565b505050565b600080610a2c836114f4565b9050600073ffffffffffffffffffffffffffffffffffffffff168173ffffffffffffffffffffffffffffffffffffffff1603610a9d576040517f08c379a0000000000000000000000000000000000000000000000000000000008152600401610a9490612a7f565b60405180910390fd5b80915050919050565b60008073ffffffffffffffffffffffffffffffffffffffff168273ffffffffffffffffffffffffffffffffffffffff1603610b16576040517f08c379a0000000000000000000000000000000000000000000000000000000008152600401610b0d90612b11565b60405180910390fd5b600360008373ffffffffffffffffffffffffffffffffffffffff1673ffffffffffffffffffffffffffffffffffffffff168152602001908152602001600020549050919050565b610b65611476565b610b6f6000611531565b565b60075481565b60096020528060005260406000206000915090508054610b969061278d565b80601f0160208091040260200160405190810160405280929190818152602001828054610bc29061278d565b8015610c0f5780601f10610be457610100808354040283529160200191610c0f565b820191906000526020600020905b815481529060010190602001808311610bf257829003601f168201915b505050505081565b6000600660009054906101000a900473ffffffffffffffffffffffffffffffffffffffff16905090565b606060018054610c509061278d565b80601f0160208091040260200160405190810160405280929190818152602001828054610c7c9061278d565b8015610cc95780601f10610c9e57610100808354040283529160200191610cc9565b820191906000526020600020905b815481529060010190602001808311610cac57829003601f168201915b5050505050905090565b610ce5610cde611027565b83836115f7565b5050565b600a54341015610d2e576040517f08c379a0000000000000000000000000000000000000000000000000000000008152600401610d2590612b7d565b60405180910390fd5b610d388133611763565b50565b610d4c610d46611027565b836110e8565b610d8b576040517f08c379a0000000000000000000000000000000000000000000000000000000008152600401610d8290612954565b60405180910390fd5b610d978484848461193d565b50505050565b6008818051602081018201805184825260208301602085012081835280955050505050506000915090505481565b610dd3611476565b80600a8190555050565b6060610de882610fdc565b6000610df2611999565b90506000815111610e125760405180602001604052806000815250610e3d565b80610e1c846119b0565b604051602001610e2d929190612b9d565b6040516020818303038152906040525b915050919050565b6000600560008473ffffffffffffffffffffffffffffffffffffffff1673ffffffffffffffffffffffffffffffffffffffff16815260200190815260200160002060008373ffffffffffffffffffffffffffffffffffffffff1673ffffffffffffffffffffffffffffffffffffffff16815260200190815260200160002060009054906101000a900460ff16905092915050565b610ee1611476565b600073ffffffffffffffffffffffffffffffffffffffff168173ffffffffffffffffffffffffffffffffffffffff1603610f50576040517f08c379a0000000000000000000000000000000000000000000000000000000008152600401610f4790612c33565b60405180910390fd5b610f5981611531565b50565b610f64611476565b610f6e8282611763565b5050565b60007f01ffc9a7000000000000000000000000000000000000000000000000000000007bffffffffffffffffffffffffffffffffffffffffffffffffffffffff1916827bffffffffffffffffffffffffffffffffffffffffffffffffffffffff1916149050919050565b610fe581611a7e565b611024576040517f08c379a000000000000000000000000000000000000000000000000000000000815260040161101b90612a7f565b60405180910390fd5b50565b600033905090565b816004600083815260200190815260200160002060006101000a81548173ffffffffffffffffffffffffffffffffffffffff021916908373ffffffffffffffffffffffffffffffffffffffff160217905550808273ffffffffffffffffffffffffffffffffffffffff166110a283610a20565b73ffffffffffffffffffffffffffffffffffffffff167f8c5be1e5ebec7d5bd14f71427d1e84f3dd0314c0f7b2291e5b200ac8c7c3b92560405160405180910390a45050565b6000806110f483610a20565b90508073ffffffffffffffffffffffffffffffffffffffff168473ffffffffffffffffffffffffffffffffffffffff16148061113657506111358185610e45565b5b8061117457508373ffffffffffffffffffffffffffffffffffffffff1661115c8461076d565b73ffffffffffffffffffffffffffffffffffffffff16145b91505092915050565b8273ffffffffffffffffffffffffffffffffffffffff1661119d82610a20565b73ffffffffffffffffffffffffffffffffffffffff16146111f3576040517f08c379a00000000000000000000000000000000000000000000000000000000081526004016111ea90612cc5565b60405180910390fd5b600073ffffffffffffffffffffffffffffffffffffffff168273ffffffffffffffffffffffffffffffffffffffff1603611262576040517f08c379a000000000000000000000000000000000000000000000000000000000815260040161125990612d57565b60405180910390fd5b61126f8383836001611abf565b8273ffffffffffffffffffffffffffffffffffffffff1661128f82610a20565b73ffffffffffffffffffffffffffffffffffffffff16146112e5576040517f08c379a00000000000000000000000000000000000000000000000000000000081526004016112dc90612cc5565b60405180910390fd5b6004600082815260200190815260200160002060006101000a81549073ffffffffffffffffffffffffffffffffffffffff02191690556001600360008573ffffffffffffffffffffffffffffffffffffffff1673ffffffffffffffffffffffffffffffffffffffff168152602001908152602001600020600082825403925050819055506001600360008473ffffffffffffffffffffffffffffffffffffffff1673ffffffffffffffffffffffffffffffffffffffff16815260200190815260200160002060008282540192505081905550816002600083815260200190815260200160002060006101000a81548173ffffffffffffffffffffffffffffffffffffffff021916908373ffffffffffffffffffffffffffffffffffffffff160217905550808273ffffffffffffffffffffffffffffffffffffffff168473ffffffffffffffffffffffffffffffffffffffff167fddf252ad1be2c89b69c2b068fc378daa952ba7f163c4a11628f55a4df523b3ef60405160405180910390a46114718383836001611ac5565b505050565b61147e611027565b73ffffffffffffffffffffffffffffffffffffffff1661149c610c17565b73ffffffffffffffffffffffffffffffffffffffff16146114f2576040517f08c379a00000000000000000000000000000000000000000000000000000000081526004016114e990612dc3565b60405180910390fd5b565b60006002600083815260200190815260200160002060009054906101000a900473ffffffffffffffffffffffffffffffffffffffff169050919050565b6000600660009054906101000a900473ffffffffffffffffffffffffffffffffffffffff16905081600660006101000a81548173ffffffffffffffffffffffffffffffffffffffff021916908373ffffffffffffffffffffffffffffffffffffffff1602179055508173ffffffffffffffffffffffffffffffffffffffff168173ffffffffffffffffffffffffffffffffffffffff167f8be0079c531659141344cd1fd0a4f28419497f9722a3daafe3b4186f6b6457e060405160405180910390a35050565b8173ffffffffffffffffffffffffffffffffffffffff168373ffffffffffffffffffffffffffffffffffffffff1603611665576040517f08c379a000000000000000000000000000000000000000000000000000000000815260040161165c90612e2f565b60405180910390fd5b80600560008573ffffffffffffffffffffffffffffffffffffffff1673ffffffffffffffffffffffffffffffffffffffff16815260200190815260200160002060008473ffffffffffffffffffffffffffffffffffffffff1673ffffffffffffffffffffffffffffffffffffffff16815260200190815260200160002060006101000a81548160ff0219169083151502179055508173ffffffffffffffffffffffffffffffffffffffff168373ffffffffffffffffffffffffffffffffffffffff167f17307eab39ab6107e8899845ad3d59bd9653f200f220920489ca2b5937696c31836040516117569190612112565b60405180910390a3505050565b60008251116117a7576040517f08c379a000000000000000000000000000000000000000000000000000000000815260040161179e90612e9b565b60405180910390fd5b60006008836040516117b991906129b0565b90815260200160405180910390205414611808576040517f08c379a00000000000000000000000000000000000000000000000000000000081526004016117ff90612f07565b60405180910390fd5b600073ffffffffffffffffffffffffffffffffffffffff168173ffffffffffffffffffffffffffffffffffffffff1603611877576040517f08c379a000000000000000000000000000000000000000000000000000000000815260040161186e90612f73565b60405180910390fd5b600060076000815461188890612fc2565b9190508190559050806008846040516118a191906129b0565b908152602001604051809103902081905550826009600083815260200190815260200160002090816118d391906131b6565b506118de8282611acb565b808273ffffffffffffffffffffffffffffffffffffffff168460405161190491906129b0565b60405180910390207f19b32006d377795e50309cbfef6336edf2dac8a41b8aa40093296ca5489b4d6760405160405180910390a4505050565b61194884848461117d565b61195484848484611ae9565b611993576040517f08c379a000000000000000000000000000000000000000000000000000000000815260040161198a906132fa565b60405180910390fd5b50505050565b606060405180602001604052806000815250905090565b6060600060016119bf84611c70565b01905060008167ffffffffffffffff8111156119de576119dd612391565b5b6040519080825280601f01601f191660200182016040528015611a105781602001600182028036833780820191505090505b509050600082602001820190505b600115611a73578080600190039150507f3031323334353637383961626364656600000000000000000000000000000000600a86061a8153600a8581611a6757611a6661331a565b5b04945060008503611a1e575b819350505050919050565b60008073ffffffffffffffffffffffffffffffffffffffff16611aa0836114f4565b73ffffffffffffffffffffffffffffffffffffffff1614159050919050565b50505050565b50505050565b611ae5828260405180602001604052806000815250611dc3565b5050565b6000611b0a8473ffffffffffffffffffffffffffffffffffffffff16611e1e565b15611c63578373ffffffffffffffffffffffffffffffffffffffff1663150b7a02611b33611027565b8786866040518563ffffffff1660e01b8152600401611b55949392919061339e565b6020604051808303816000875af1925050508015611b9157506040513d601f19601f82011682018060405250810190611b8e91906133ff565b60015b611c13573d8060008114611bc1576040519150601f19603f3d011682016040523d82523d6000602084013e611bc6565b606091505b506000815103611c0b576040517f08c379a0000000000000000000000000000000000000000000000000000000008152600401611c02906132fa565b60405180910390fd5b805181602001fd5b63150b7a0260e01b7bffffffffffffffffffffffffffffffffffffffffffffffffffffffff1916817bffffffffffffffffffffffffffffffffffffffffffffffffffffffff191614915050611c68565b600190505b949350505050565b600080600090507a184f03e93ff9f4daa797ed6e38ed64bf6a1f0100000000000000008310611cce577a184f03e93ff9f4daa797ed6e38ed64bf6a1f0100000000000000008381611cc457611cc361331a565b5b0492506040810190505b6d04ee2d6d415b85acef81000000008310611d0b576d04ee2d6d415b85acef81000000008381611d0157611d0061331a565b5b0492506020810190505b662386f26fc100008310611d3a57662386f26fc100008381611d3057611d2f61331a565b5b0492506010810190505b6305f5e1008310611d63576305f5e1008381611d5957611d5861331a565b5b0492506008810190505b6127108310611d88576127108381611d7e57611d7d61331a565b5b0492506004810190505b60648310611dab5760648381611da157611da061331a565b5b0492506002810190505b600a8310611dba576001810190505b80915050919050565b611dcd8383611e41565b611dda6000848484611ae9565b611e19576040517f08c379a0000000000000000000000000000000000000000000000000000000008152600401611e10906132fa565b60405180910390fd5b505050565b6000808273ffffffffffffffffffffffffffffffffffffffff163b119050919050565b600073ffffffffffffffffffffffffffffffffffffffff168273ffffffffffffffffffffffffffffffffffffffff1603611eb0576040517f08c379a0000000000000000000000000000000000000000000000000000000008152600401611ea790613478565b60405180910390fd5b611eb981611a7e565b15611ef9576040517f08c379a0000000000000000000000000000000000000000000000000000000008152600401611ef0906134e4565b60405180910390fd5b611f07600083836001611abf565b611f1081611a7e565b15611f50576040517f08c379a0000000000000000000000000000000000000000000000000000000008152600401611f47906134e4565b60405180910390fd5b6001600360008473ffffffffffffffffffffffffffffffffffffffff1673ffffffffffffffffffffffffffffffffffffffff16815260200190815260200160002060008282540192505081905550816002600083815260200190815260200160002060006101000a81548173ffffffffffffffffffffffffffffffffffffffff021916908373ffffffffffffffffffffffffffffffffffffffff160217905550808273ffffffffffffffffffffffffffffffffffffffff16600073ffffffffffffffffffffffffffffffffffffffff167fddf252ad1be2c89b69c2b068fc378daa952ba7f163c4a11628f55a4df523b3ef60405160405180910390a461205a600083836001611ac5565b5050565b6000604051905090565b600080fd5b600080fd5b60007fffffffff0000000000000000000000000000000000000000000000000000000082169050919050565b6120a781612072565b81146120b257600080fd5b50565b6000813590506120c48161209e565b92915050565b6000602082840312156120e0576120df612068565b5b60006120ee848285016120b5565b91505092915050565b60008115159050919050565b61210c816120f7565b82525050565b60006020820190506121276000830184612103565b92915050565b600081519050919050565b600082825260208201905092915050565b60005b8381101561216757808201518184015260208101905061214c565b60008484015250505050565b6000601f19601f8301169050919050565b600061218f8261212d565b6121998185612138565b93506121a9818560208601612149565b6121b281612173565b840191505092915050565b600060208201905081810360008301526121d78184612184565b905092915050565b6000819050919050565b6121f2816121df565b81146121fd57600080fd5b50565b60008135905061220f816121e9565b92915050565b60006020828403121561222b5761222a612068565b5b600061223984828501612200565b91505092915050565b600073ffffffffffffffffffffffffffffffffffffffff82169050919050565b600061226d82612242565b9050919050565b61227d81612262565b82525050565b60006020820190506122986000830184612274565b92915050565b6122a781612262565b81146122b257600080fd5b50565b6000813590506122c48161229e565b92915050565b600080604083850312156122e1576122e0612068565b5b60006122ef858286016122b5565b925050602061230085828601612200565b9150509250929050565b612313816121df565b82525050565b600060208201905061232e600083018461230a565b92915050565b60008060006060848603121561234d5761234c612068565b5b600061235b868287016122b5565b935050602061236c868287016122b5565b925050604061237d86828701612200565b9150509250925092565b600080fd5b600080fd5b7f4e487b7100000000000000000000000000000000000000000000000000000000600052604160045260246000fd5b6123c982612173565b810181811067ffffffffffffffff821117156123e8576123e7612391565b5b80604052505050565b60006123fb61205e565b905061240782826123c0565b919050565b600067ffffffffffffffff82111561242757612426612391565b5b61243082612173565b9050602081019050919050565b82818337600083830152505050565b600061245f61245a8461240c565b6123f1565b90508281526020810184848401111561247b5761247a61238c565b5b61248684828561243d565b509392505050565b600082601f8301126124a3576124a2612387565b5b81356124b384826020860161244c565b91505092915050565b6000602082840312156124d2576124d1612068565b5b600082013567ffffffffffffffff8111156124f0576124ef61206d565b5b6124fc8482850161248e565b91505092915050565b60006020828403121561251b5761251a612068565b5b6000612529848285016122b5565b91505092915050565b61253b816120f7565b811461254657600080fd5b50565b60008135905061255881612532565b92915050565b6000806040838503121561257557612574612068565b5b6000612583858286016122b5565b925050602061259485828601612549565b9150509250929050565b600067ffffffffffffffff8211156125b9576125b8612391565b5b6125c282612173565b9050602081019050919050565b60006125e26125dd8461259e565b6123f1565b9050828152602081018484840111156125fe576125fd61238c565b5b61260984828561243d565b509392505050565b600082601f83011261262657612625612387565b5b81356126368482602086016125cf565b91505092915050565b6000806000806080858703121561265957612658612068565b5b6000612667878288016122b5565b9450506020612678878288016122b5565b935050604061268987828801612200565b925050606085013567ffffffffffffffff8111156126aa576126a961206d565b5b6126b687828801612611565b91505092959194509250565b600080604083850312156126d9576126d8612068565b5b60006126e7858286016122b5565b92505060206126f8858286016122b5565b9150509250929050565b6000806040838503121561271957612718612068565b5b600083013567ffffffffffffffff8111156127375761273661206d565b5b6127438582860161248e565b9250506020612754858286016122b5565b9150509250929050565b7f4e487b7100000000000000000000000000000000000000000000000000000000600052602260045260246000fd5b600060028204905060018216806127a557607f821691505b6020821081036127b8576127b761275e565b5b50919050565b7f4552433732313a20617070726f76616c20746f2063757272656e74206f776e6560008201527f7200000000000000000000000000000000000000000000000000000000000000602082015250565b600061281a602183612138565b9150612825826127be565b604082019050919050565b600060208201905081810360008301526128498161280d565b9050919050565b7f4552433732313a20617070726f76652063616c6c6572206973206e6f7420746f60008201527f6b656e206f776e6572206f7220617070726f76656420666f7220616c6c000000602082015250565b60006128ac603d83612138565b91506128b782612850565b604082019050919050565b600060208201905081810360008301526128db8161289f565b9050919050565b7f4552433732313a2063616c6c6572206973206e6f7420746f6b656e206f776e6560008201527f72206f7220617070726f76656400000000000000000000000000000000000000602082015250565b600061293e602d83612138565b9150612949826128e2565b604082019050919050565b6000602082019050818103600083015261296d81612931565b9050919050565b600081905092915050565b600061298a8261212d565b6129948185612974565b93506129a4818560208601612149565b80840191505092915050565b60006129bc828461297f565b915081905092915050565b7f446f6d61696e206e6f7420726567697374657265640000000000000000000000600082015250565b60006129fd601583612138565b9150612a08826129c7565b602082019050919050565b60006020820190508181036000830152612a2c816129f0565b9050919050565b7f4552433732313a20696e76616c696420746f6b656e2049440000000000000000600082015250565b6000612a69601883612138565b9150612a7482612a33565b602082019050919050565b60006020820190508181036000830152612a9881612a5c565b9050919050565b7f4552433732313a2061646472657373207a65726f206973206e6f74206120766160008201527f6c6964206f776e65720000000000000000000000000000000000000000000000602082015250565b6000612afb602983612138565b9150612b0682612a9f565b604082019050919050565b60006020820190508181036000830152612b2a81612aee565b9050919050565b7f496e73756666696369656e74206665652070726f766964656400000000000000600082015250565b6000612b67601983612138565b9150612b7282612b31565b602082019050919050565b60006020820190508181036000830152612b9681612b5a565b9050919050565b6000612ba9828561297f565b9150612bb5828461297f565b91508190509392505050565b7f4f776e61626c653a206e6577206f776e657220697320746865207a65726f206160008201527f6464726573730000000000000000000000000000000000000000000000000000602082015250565b6000612c1d602683612138565b9150612c2882612bc1565b604082019050919050565b60006020820190508181036000830152612c4c81612c10565b9050919050565b7f4552433732313a207472616e736665722066726f6d20696e636f72726563742060008201527f6f776e6572000000000000000000000000000000000000000000000000000000602082015250565b6000612caf602583612138565b9150612cba82612c53565b604082019050919050565b60006020820190508181036000830152612cde81612ca2565b9050919050565b7f4552433732313a207472616e7366657220746f20746865207a65726f2061646460008201527f7265737300000000000000000000000000000000000000000000000000000000602082015250565b6000612d41602483612138565b9150612d4c82612ce5565b604082019050919050565b60006020820190508181036000830152612d7081612d34565b9050919050565b7f4f776e61626c653a2063616c6c6572206973206e6f7420746865206f776e6572600082015250565b6000612dad602083612138565b9150612db882612d77565b602082019050919050565b60006020820190508181036000830152612ddc81612da0565b9050919050565b7f4552433732313a20617070726f766520746f2063616c6c657200000000000000600082015250565b6000612e19601983612138565b9150612e2482612de3565b602082019050919050565b60006020820190508181036000830152612e4881612e0c565b9050919050565b7f446f6d61696e206e616d652063616e6e6f7420626520656d7074790000000000600082015250565b6000612e85601b83612138565b9150612e9082612e4f565b602082019050919050565b60006020820190508181036000830152612eb481612e78565b9050919050565b7f446f6d61696e20616c7265616479207265676973746572656400000000000000600082015250565b6000612ef1601983612138565b9150612efc82612ebb565b602082019050919050565b60006020820190508181036000830152612f2081612ee4565b9050919050565b7f43616e6e6f7420726567697374657220746f207a65726f206164647265737300600082015250565b6000612f5d601f83612138565b9150612f6882612f27565b602082019050919050565b60006020820190508181036000830152612f8c81612f50565b9050919050565b7f4e487b7100000000000000000000000000000000000000000000000000000000600052601160045260246000fd5b6000612fcd826121df565b91507fffffffffffffffffffffffffffffffffffffffffffffffffffffffffffffffff8203612fff57612ffe612f93565b5b600182019050919050565b60008190508160005260206000209050919050565b60006020601f8301049050919050565b600082821b905092915050565b60006008830261306c7fffffffffffffffffffffffffffffffffffffffffffffffffffffffffffffffff8261302f565b613076868361302f565b95508019841693508086168417925050509392505050565b6000819050919050565b60006130b36130ae6130a9846121df565b61308e565b6121df565b9050919050565b6000819050919050565b6130cd83613098565b6130e16130d9826130ba565b84845461303c565b825550505050565b600090565b6130f66130e9565b6131018184846130c4565b505050565b5b818110156131255761311a6000826130ee565b600181019050613107565b5050565b601f82111561316a5761313b8161300a565b6131448461301f565b81016020851015613153578190505b61316761315f8561301f565b830182613106565b50505b505050565b600082821c905092915050565b600061318d6000198460080261316f565b1980831691505092915050565b60006131a6838361317c565b9150826002028217905092915050565b6131bf8261212d565b67ffffffffffffffff8111156131d8576131d7612391565b5b6131e2825461278d565b6131ed828285613129565b600060209050601f831160018114613220576000841561320e578287015190505b613218858261319a565b865550613280565b601f19841661322e8661300a565b60005b8281101561325657848901518255600182019150602085019450602081019050613231565b86831015613273578489015161326f601f89168261317c565b8355505b6001600288020188555050505b505050505050565b7f4552433732313a207472616e7366657220746f206e6f6e20455243373231526560008201527f63656976657220696d706c656d656e7465720000000000000000000000000000602082015250565b60006132e4603283612138565b91506132ef82613288565b604082019050919050565b60006020820190508181036000830152613313816132d7565b9050919050565b7f4e487b7100000000000000000000000000000000000000000000000000000000600052601260045260246000fd5b600081519050919050565b600082825260208201905092915050565b600061337082613349565b61337a8185613354565b935061338a818560208601612149565b61339381612173565b840191505092915050565b60006080820190506133b36000830187612274565b6133c06020830186612274565b6133cd604083018561230a565b81810360608301526133df8184613365565b905095945050505050565b6000815190506133f98161209e565b92915050565b60006020828403121561341557613414612068565b5b6000613423848285016133ea565b91505092915050565b7f4552433732313a206d696e7420746f20746865207a65726f2061646472657373600082015250565b6000613462602083612138565b915061346d8261342c565b602082019050919050565b6000602082019050818103600083015261349181613455565b9050919050565b7f4552433732313a20746f6b656e20616c7265616479206d696e74656400000000600082015250565b60006134ce601c83612138565b91506134d982613498565b602082019050919050565b600060208201905081810360008301526134fd816134c1565b905091905056fea2646970667358221220e566de6df45ad6e555fb874d23e89e98cb4296c9f9d7ca8242492c962387ac6f64736f6c63430008140033",
  "linkReferences": {},
  "deployedLinkReferences": {}
}