{
  "_format": "hh-sol-artifact-1",
  "contractName": "MezoDomains",
  "sourceName": "contracts/MezoDomains.sol",
  "abi": [
    {
      "inputs": [],
      "stateMutability": "nonpayable",
      "type": "constructor"
    },
    {
      "anonymous": false,
      "inputs": [
        {
          "indexed": true,
          "internalType": "address",
          "name": "owner",
          "type": "address"
        },
        {
          "indexed": true,
          "internalType": "address",
          "name": "approved",
          "type": "address"
        },
        {
          "indexed": true,
          "internalType": "uint256",
          "name": "tokenId",
          "type": "uint256"
        }
      ],
      "name": "Approval",
      "type": "event"
    },
    {
      "anonymous": false,
      "inputs": [
        {
          "indexed": true,
          "internalType": "address",
          "name": "owner",
          "type": "address"
        },
        {
          "indexed": true,
          "internalType": "address",
          "name": "operator",
          "type": "address"
        },
        {
          "indexed": false,
          "internalType": "bool",
          "name": "approved",
          "type": "bool"
        }
      ],
      "name": "ApprovalForAll",
      "type": "event"
    },
    {
      "anonymous": false,
      "inputs": [
        {
          "indexed": true,
          "internalType": "string",
          "name": "domainName",
          "type": "string"
        },
        {
          "indexed": true,
          "internalType": "address",
          "name": "owner",
          "type": "address"
        },
        {
          "indexed": true,
          "internalType": "uint256",
          "name": "tokenId",
          "type": "uint256"
        }
      ],
      "name": "DomainRegistered",
      "type": "event"
    },
    {
      "anonymous": false,
      "inputs": [
        {
          "indexed": true,
          "internalType": "address",
          "name": "previousOwner",
          "type": "address"
        },
        {
          "indexed": true,
          "internalType": "address",
          "name": "newOwner",
          "type": "address"
        }
      ],
      "name": "OwnershipTransferred",
      "type": "event"
    },
    {
      "anonymous": false,
      "inputs": [
        {
          "indexed": true,
          "internalType": "address",
          "name": "owner",
          "type": "address"
        },
        {
          "indexed": false,
          "internalType": "string",
          "name": "domainName",
          "type": "string"
        }
      ],
      "name": "PrimaryDomainSet",
      "type": "event"
    },
    {
      "anonymous": false,
      "inputs": [
        {
          "indexed": true,
          "internalType": "address",
          "name": "from",
          "type": "address"
        },
        {
          "indexed": true,
          "internalType": "address",
          "name": "to",
          "type": "address"
        },
        {
          "indexed": true,
          "internalType": "uint256",
          "name": "tokenId",
          "type": "uint256"
        }
      ],
      "name": "Transfer",
      "type": "event"
    },
    {
      "inputs": [
        {
          "internalType": "address",
          "name": "to",
          "type": "address"
        },
        {
          "internalType": "uint256",
          "name": "tokenId",
          "type": "uint256"
        }
      ],
      "name": "approve",
      "outputs": [],
      "stateMutability": "nonpayable",
      "type": "function"
    },
    {
      "inputs": [
        {
          "internalType": "address",
          "name": "owner",
          "type": "address"
        }
      ],
      "name": "balanceOf",
      "outputs": [
        {
          "internalType": "uint256",
          "name": "",
          "type": "uint256"
        }
      ],
      "stateMutability": "view",
      "type": "function"
    },
    {
      "inputs": [
        {
          "internalType": "string",
          "name": "",
          "type": "string"
        }
      ],
      "name": "domainToTokenId",
      "outputs": [
        {
          "internalType": "uint256",
          "name": "",
          "type": "uint256"
        }
      ],
      "stateMutability": "view",
      "type": "function"
    },
    {
      "inputs": [
        {
          "internalType": "uint256",
          "name": "tokenId",
          "type": "uint256"
        }
      ],
      "name": "getApproved",
      "outputs": [
        {
          "internalType": "address",
          "name": "",
          "type": "address"
        }
      ],
      "stateMutability": "view",
      "type": "function"
    },
    {
      "inputs": [
        {
          "internalType": "string",
          "name": "_domainName",
          "type": "string"
        }
      ],
      "name": "getDomainOwner",
      "outputs": [
        {
          "internalType": "address",
          "name": "",
          "type": "address"
        }
      ],
      "stateMutability": "view",
      "type": "function"
    },
    {
      "inputs": [
        {
          "internalType": "address",
          "name": "_owner",
          "type": "address"
        }
      ],
      "name": "getPrimaryDomain",
      "outputs": [
        {
          "internalType": "string",
          "name": "",
          "type": "string"
        }
      ],
      "stateMutability": "view",
      "type": "function"
    },
    {
      "inputs": [
        {
          "internalType": "address",
          "name": "owner",
          "type": "address"
        },
        {
          "internalType": "address",
          "name": "operator",
          "type": "address"
        }
      ],
      "name": "isApprovedForAll",
      "outputs": [
        {
          "internalType": "bool",
          "name": "",
          "type": "bool"
        }
      ],
      "stateMutability": "view",
      "type": "function"
    },
    {
      "inputs": [],
      "name": "name",
      "outputs": [
        {
          "internalType": "string",
          "name": "",
          "type": "string"
        }
      ],
      "stateMutability": "view",
      "type": "function"
    },
    {
      "inputs": [],
      "name": "nextTokenId",
      "outputs": [
        {
          "internalType": "uint256",
          "name": "",
          "type": "uint256"
        }
      ],
      "stateMutability": "view",
      "type": "function"
    },
    {
      "inputs": [],
      "name": "owner",
      "outputs": [
        {
          "internalType": "address",
          "name": "",
          "type": "address"
        }
      ],
      "stateMutability": "view",
      "type": "function"
    },
    {
      "inputs": [
        {
          "internalType": "uint256",
          "name": "tokenId",
          "type": "uint256"
        }
      ],
      "name": "ownerOf",
      "outputs": [
        {
          "internalType": "address",
          "name": "",
          "type": "address"
        }
      ],
      "stateMutability": "view",
      "type": "function"
    },
    {
      "inputs": [
        {
          "internalType": "address",
          "name": "",
          "type": "address"
        }
      ],
      "name": "primaryDomain",
      "outputs": [
        {
          "internalType": "string",
          "name": "",
          "type": "string"
        }
      ],
      "stateMutability": "view",
      "type": "function"
    },
    {
      "inputs": [
        {
          "internalType": "string",
          "name": "_domainName",
          "type": "string"
        }
      ],
      "name": "registerDomain",
      "outputs": [],
      "stateMutability": "payable",
      "type": "function"
    },
    {
      "inputs": [
        {
          "internalType": "string",
          "name": "_domainName",
          "type": "string"
        },
        {
          "internalType": "address",
          "name": "_to",
          "type": "address"
        }
      ],
      "name": "registerDomainFor",
      "outputs": [],
      "stateMutability": "nonpayable",
      "type": "function"
    },
    {
      "inputs": [],
      "name": "registrationFee",
      "outputs": [
        {
          "internalType": "uint256",
          "name": "",
          "type": "uint256"
        }
      ],
      "stateMutability": "view",
      "type": "function"
    },
    {
      "inputs": [],
      "name": "renounceOwnership",
      "outputs": [],
      "stateMutability": "nonpayable",
      "type": "function"
    },
    {
      "inputs": [
        {
          "internalType": "address",
          "name": "from",
          "type": "address"
        },
        {
          "internalType": "address",
          "name": "to",
          "type": "address"
        },
        {
          "internalType": "uint256",
          "name": "tokenId",
          "type": "uint256"
        }
      ],
      "name": "safeTransferFrom",
      "outputs": [],
      "stateMutability": "nonpayable",
      "type": "function"
    },
    {
      "inputs": [
        {
          "internalType": "address",
          "name": "from",
          "type": "address"
        },
        {
          "internalType": "address",
          "name": "to",
          "type": "address"
        },
        {
          "internalType": "uint256",
          "name": "tokenId",
          "type": "uint256"
        },
        {
          "internalType": "bytes",
          "name": "data",
          "type": "bytes"
        }
      ],
      "name": "safeTransferFrom",
      "outputs": [],
      "stateMutability": "nonpayable",
      "type": "function"
    },
    {
      "inputs": [
        {
          "internalType": "address",
          "name": "operator",
          "type": "address"
        },
        {
          "internalType": "bool",
          "name": "approved",
          "type": "bool"
        }
      ],
      "name": "setApprovalForAll",
      "outputs": [],
      "stateMutability": "nonpayable",
      "type": "function"
    },
    {
      "inputs": [
        {
          "internalType": "string",
          "name": "_domainName",
          "type": "string"
        }
      ],
      "name": "setPrimaryDomain",
      "outputs": [],
      "stateMutability": "nonpayable",
      "type": "function"
    },
    {
      "inputs": [
        {
          "internalType": "uint256",
          "name": "_newFee",
          "type": "uint256"
        }
      ],
      "name": "setRegistrationFee",
      "outputs": [],
      "stateMutability": "nonpayable",
      "type": "function"
    },
    {
      "inputs": [
        {
          "internalType": "bytes4",
          "name": "interfaceId",
          "type": "bytes4"
        }
      ],
      "name": "supportsInterface",
      "outputs": [
        {
          "internalType": "bool",
          "name": "",
          "type": "bool"
        }
      ],
      "stateMutability": "view",
      "type": "function"
    },
    {
      "inputs": [],
      "name": "symbol",
      "outputs": [
        {
          "internalType": "string",
          "name": "",
          "type": "string"
        }
      ],
      "stateMutability": "view",
      "type": "function"
    },
    {
      "inputs": [
        {
          "internalType": "uint256",
          "name": "",
          "type": "uint256"
        }
      ],
      "name": "tokenIdToDomain",
      "outputs": [
        {
          "internalType": "string",
          "name": "",
          "type": "string"
        }
      ],
      "stateMutability": "view",
      "type": "function"
    },
    {
      "inputs": [
        {
          "internalType": "uint256",
          "name": "tokenId",
          "type": "uint256"
        }
      ],
      "name": "tokenURI",
      "outputs": [
        {
          "internalType": "string",
          "name": "",
          "type": "string"
        }
      ],
      "stateMutability": "view",
      "type": "function"
    },
    {
      "inputs": [
        {
          "internalType": "address",
          "name": "from",
          "type": "address"
        },
        {
          "internalType": "address",
          "name": "to",
          "type": "address"
        },
        {
          "internalType": "uint256",
          "name": "tokenId",
          "type": "uint256"
        }
      ],
      "name": "transferFrom",
      "outputs": [],
      "stateMutability": "nonpayable",
      "type": "function"
    },
    {
      "inputs": [
        {
          "internalType": "address",
          "name": "newOwner",
          "type": "address"
        }
      ],
      "name": "transferOwnership",
      "outputs": [],
      "stateMutability": "nonpayable",
      "type": "function"
    },
    {
      "inputs": [],
      "name": "withdrawFunds",
      "outputs": [],
      "stateMutability": "nonpayable",
      "type": "function"
    }
  ],
  "bytecode": "0x6080604052655af3107a4000600b553480156200001b57600080fd5b506040518060400160405280600c81526020017f4d657a6f20446f6d61696e7300000000000000000000000000000000000000008152506040518060400160405280600381526020017f4d5a44000000000000000000000000000000000000000000000000000000000081525081600090816200009991906200042d565b508060019081620000ab91906200042d565b505050620000ce620000c2620000e560201b60201c565b620000ed60201b60201c565b620000df33620000ed60201b60201c565b62000514565b600033905090565b6000600660009054906101000a900473ffffffffffffffffffffffffffffffffffffffff16905081600660006101000a81548173ffffffffffffffffffffffffffffffffffffffff021916908373ffffffffffffffffffffffffffffffffffffffff1602179055508173ffffffffffffffffffffffffffffffffffffffff168173ffffffffffffffffffffffffffffffffffffffff167f8be0079c531659141344cd1fd0a4f28419497f9722a3daafe3b4186f6b6457e060405160405180910390a35050565b600081519050919050565b7f4e487b7100000000000000000000000000000000000000000000000000000000600052604160045260246000fd5b7f4e487b7100000000000000000000000000000000000000000000000000000000600052602260045260246000fd5b600060028204905060018216806200023557607f821691505b6020821081036200024b576200024a620001ed565b5b50919050565b60008190508160005260206000209050919050565b60006020601f8301049050919050565b600082821b905092915050565b600060088302620002b57fffffffffffffffffffffffffffffffffffffffffffffffffffffffffffffffff8262000276565b620002c1868362000276565b95508019841693508086168417925050509392505050565b6000819050919050565b6000819050919050565b60006200030e620003086200030284620002d9565b620002e3565b620002d9565b9050919050565b6000819050919050565b6200032a83620002ed565b62000342620003398262000315565b84845462000283565b825550505050565b600090565b620003596200034a565b620003668184846200031f565b505050565b5b818110156200038e57620003826000826200034f565b6001810190506200036c565b5050565b601f821115620003dd57620003a78162000251565b620003b28462000266565b81016020851015620003c2578190505b620003da620003d18562000266565b8301826200036b565b50505b505050565b600082821c905092915050565b60006200040260001984600802620003e2565b1980831691505092915050565b60006200041d8383620003ef565b9150826002028217905092915050565b6200043882620001b3565b67ffffffffffffffff811115620004545762000453620001be565b5b6200046082546200021c565b6200046d82828562000392565b600060209050601f831160018114620004a5576000841562000490578287015190505b6200049c85826200040f565b8655506200050c565b601f198416620004b58662000251565b60005b82811015620004df57848901518255600182019150602085019450602081019050620004b8565b86831015620004ff5784890151620004fb601f891682620003ef565b8355505b6001600288020188555050505b505050505050565b613a7580620005246000396000f3fe6080604052600436106101b75760003560e01c80638cd108de116100ec578063c2d05fbc1161008a578063c87b56dd11610064578063c87b56dd14610621578063e985e9c51461065e578063f2fde38b1461069b578063f3103730146106c4576101b7565b8063c2d05fbc1461057e578063c320c727146105bb578063c604b84a146105e4576101b7565b8063a22cb465116100c6578063a22cb465146104d3578063a5cad08a146104fc578063b88d4fde14610518578063bca6eec414610541576101b7565b80638cd108de146104405780638da5cb5b1461047d57806395d89b41146104a8576101b7565b806325970115116101595780636b9a0ee9116101335780636b9a0ee91461039857806370a08231146103c1578063715018a6146103fe57806375794a3c14610415576101b7565b806325970115146102f557806342842e0e146103325780636352211e1461035b576101b7565b8063095ea7b311610195578063095ea7b31461026157806314c44e091461028a57806323b872dd146102b557806324600fc3146102de576101b7565b806301ffc9a7146101bc57806306fdde03146101f9578063081812fc14610224575b600080fd5b3480156101c857600080fd5b506101e360048036038101906101de9190612599565b6106ed565b6040516101f091906125e1565b60405180910390f35b34801561020557600080fd5b5061020e6107cf565b60405161021b919061268c565b60405180910390f35b34801561023057600080fd5b5061024b600480360381019061024691906126e4565b610861565b6040516102589190612752565b60405180910390f35b34801561026d57600080fd5b5061028860048036038101906102839190612799565b6108a7565b005b34801561029657600080fd5b5061029f6109be565b6040516102ac91906127e8565b60405180910390f35b3480156102c157600080fd5b506102dc60048036038101906102d79190612803565b6109c4565b005b3480156102ea57600080fd5b506102f3610a24565b005b34801561030157600080fd5b5061031c6004803603810190610317919061298b565b610a7c565b6040516103299190612752565b60405180910390f35b34801561033e57600080fd5b5061035960048036038101906103549190612803565b610af4565b005b34801561036757600080fd5b50610382600480360381019061037d91906126e4565b610b14565b60405161038f9190612752565b60405180910390f35b3480156103a457600080fd5b506103bf60048036038101906103ba919061298b565b610b9a565b005b3480156103cd57600080fd5b506103e860048036038101906103e391906129d4565b610d15565b6040516103f591906127e8565b60405180910390f35b34801561040a57600080fd5b50610413610dcc565b005b34801561042157600080fd5b5061042a610de0565b60405161043791906127e8565b60405180910390f35b34801561044c57600080fd5b50610467600480360381019061046291906126e4565b610de6565b604051610474919061268c565b60405180910390f35b34801561048957600080fd5b50610492610e86565b60405161049f9190612752565b60405180910390f35b3480156104b457600080fd5b506104bd610eb0565b6040516104ca919061268c565b60405180910390f35b3480156104df57600080fd5b506104fa60048036038101906104f59190612a2d565b610f42565b005b6105166004803603810190610511919061298b565b610f58565b005b34801561052457600080fd5b5061053f600480360381019061053a9190612b0e565b610faa565b005b34801561054d57600080fd5b506105686004803603810190610563919061298b565b61100c565b60405161057591906127e8565b60405180910390f35b34801561058a57600080fd5b506105a560048036038101906105a091906129d4565b61103a565b6040516105b2919061268c565b60405180910390f35b3480156105c757600080fd5b506105e260048036038101906105dd91906126e4565b6110da565b005b3480156105f057600080fd5b5061060b600480360381019061060691906129d4565b6110ec565b604051610618919061268c565b60405180910390f35b34801561062d57600080fd5b50610648600480360381019061064391906126e4565b6111bd565b604051610655919061268c565b60405180910390f35b34801561066a57600080fd5b5061068560048036038101906106809190612b91565b611225565b60405161069291906125e1565b60405180910390f35b3480156106a757600080fd5b506106c260048036038101906106bd91906129d4565b6112b9565b005b3480156106d057600080fd5b506106eb60048036038101906106e69190612bd1565b61133c565b005b60007f80ac58cd000000000000000000000000000000000000000000000000000000007bffffffffffffffffffffffffffffffffffffffffffffffffffffffff1916827bffffffffffffffffffffffffffffffffffffffffffffffffffffffff191614806107b857507f5b5e139f000000000000000000000000000000000000000000000000000000007bffffffffffffffffffffffffffffffffffffffffffffffffffffffff1916827bffffffffffffffffffffffffffffffffffffffffffffffffffffffff1916145b806107c857506107c782611352565b5b9050919050565b6060600080546107de90612c5c565b80601f016020809104026020016040519081016040528092919081815260200182805461080a90612c5c565b80156108575780601f1061082c57610100808354040283529160200191610857565b820191906000526020600020905b81548152906001019060200180831161083a57829003601f168201915b5050505050905090565b600061086c826113bc565b6004600083815260200190815260200160002060009054906101000a900473ffffffffffffffffffffffffffffffffffffffff169050919050565b60006108b282610b14565b90508073ffffffffffffffffffffffffffffffffffffffff168373ffffffffffffffffffffffffffffffffffffffff1603610922576040517f08c379a000000000000000000000000000000000000000000000000000000000815260040161091990612cff565b60405180910390fd5b8073ffffffffffffffffffffffffffffffffffffffff16610941611407565b73ffffffffffffffffffffffffffffffffffffffff161480610970575061096f8161096a611407565b611225565b5b6109af576040517f08c379a00000000000000000000000000000000000000000000000000000000081526004016109a690612d91565b60405180910390fd5b6109b9838361140f565b505050565b600b5481565b6109d56109cf611407565b826114c8565b610a14576040517f08c379a0000000000000000000000000000000000000000000000000000000008152600401610a0b90612e23565b60405180910390fd5b610a1f83838361155d565b505050565b610a2c611856565b610a34610e86565b73ffffffffffffffffffffffffffffffffffffffff166108fc479081150290604051600060405180830381858888f19350505050158015610a79573d6000803e3d6000fd5b50565b600080600883604051610a8f9190612e7f565b908152602001604051809103902054905060008103610ae3576040517f08c379a0000000000000000000000000000000000000000000000000000000008152600401610ada90612ee2565b60405180910390fd5b610aec81610b14565b915050919050565b610b0f83838360405180602001604052806000815250610faa565b505050565b600080610b20836118d4565b9050600073ffffffffffffffffffffffffffffffffffffffff168173ffffffffffffffffffffffffffffffffffffffff1603610b91576040517f08c379a0000000000000000000000000000000000000000000000000000000008152600401610b8890612f4e565b60405180910390fd5b80915050919050565b6000600882604051610bac9190612e7f565b908152602001604051809103902054905060008103610c00576040517f08c379a0000000000000000000000000000000000000000000000000000000008152600401610bf790612ee2565b60405180910390fd5b3373ffffffffffffffffffffffffffffffffffffffff16610c2082610b14565b73ffffffffffffffffffffffffffffffffffffffff1614610c76576040517f08c379a0000000000000000000000000000000000000000000000000000000008152600401610c6d90612fba565b60405180910390fd5b81600a60003373ffffffffffffffffffffffffffffffffffffffff1673ffffffffffffffffffffffffffffffffffffffff1681526020019081526020016000209081610cc29190613186565b503373ffffffffffffffffffffffffffffffffffffffff167f44a4610faf9ab0c5cd795892a1cdb4b9d487671479d9a7328447150801b121fa83604051610d09919061268c565b60405180910390a25050565b60008073ffffffffffffffffffffffffffffffffffffffff168273ffffffffffffffffffffffffffffffffffffffff1603610d85576040517f08c379a0000000000000000000000000000000000000000000000000000000008152600401610d7c906132ca565b60405180910390fd5b600360008373ffffffffffffffffffffffffffffffffffffffff1673ffffffffffffffffffffffffffffffffffffffff168152602001908152602001600020549050919050565b610dd4611856565b610dde6000611911565b565b60075481565b60096020528060005260406000206000915090508054610e0590612c5c565b80601f0160208091040260200160405190810160405280929190818152602001828054610e3190612c5c565b8015610e7e5780601f10610e5357610100808354040283529160200191610e7e565b820191906000526020600020905b815481529060010190602001808311610e6157829003601f168201915b505050505081565b6000600660009054906101000a900473ffffffffffffffffffffffffffffffffffffffff16905090565b606060018054610ebf90612c5c565b80601f0160208091040260200160405190810160405280929190818152602001828054610eeb90612c5c565b8015610f385780601f10610f0d57610100808354040283529160200191610f38565b820191906000526020600020905b815481529060010190602001808311610f1b57829003601f168201915b5050505050905090565b610f54610f4d611407565b83836119d7565b5050565b600b54341015610f9d576040517f08c379a0000000000000000000000000000000000000000000000000000000008152600401610f9490613336565b60405180910390fd5b610fa78133611b43565b50565b610fbb610fb5611407565b836114c8565b610ffa576040517f08c379a0000000000000000000000000000000000000000000000000000000008152600401610ff190612e23565b60405180910390fd5b61100684848484611e0c565b50505050565b6008818051602081018201805184825260208301602085012081835280955050505050506000915090505481565b600a602052806000526040600020600091509050805461105990612c5c565b80601f016020809104026020016040519081016040528092919081815260200182805461108590612c5c565b80156110d25780601f106110a7576101008083540402835291602001916110d2565b820191906000526020600020905b8154815290600101906020018083116110b557829003601f168201915b505050505081565b6110e2611856565b80600b8190555050565b6060600a60008373ffffffffffffffffffffffffffffffffffffffff1673ffffffffffffffffffffffffffffffffffffffff168152602001908152602001600020805461113890612c5c565b80601f016020809104026020016040519081016040528092919081815260200182805461116490612c5c565b80156111b15780601f10611186576101008083540402835291602001916111b1565b820191906000526020600020905b81548152906001019060200180831161119457829003601f168201915b50505050509050919050565b60606111c8826113bc565b60006111d2611e68565b905060008151116111f2576040518060200160405280600081525061121d565b806111fc84611e7f565b60405160200161120d929190613356565b6040516020818303038152906040525b915050919050565b6000600560008473ffffffffffffffffffffffffffffffffffffffff1673ffffffffffffffffffffffffffffffffffffffff16815260200190815260200160002060008373ffffffffffffffffffffffffffffffffffffffff1673ffffffffffffffffffffffffffffffffffffffff16815260200190815260200160002060009054906101000a900460ff16905092915050565b6112c1611856565b600073ffffffffffffffffffffffffffffffffffffffff168173ffffffffffffffffffffffffffffffffffffffff1603611330576040517f08c379a0000000000000000000000000000000000000000000000000000000008152600401611327906133ec565b60405180910390fd5b61133981611911565b50565b611344611856565b61134e8282611b43565b5050565b60007f01ffc9a7000000000000000000000000000000000000000000000000000000007bffffffffffffffffffffffffffffffffffffffffffffffffffffffff1916827bffffffffffffffffffffffffffffffffffffffffffffffffffffffff1916149050919050565b6113c581611f4d565b611404576040517f08c379a00000000000000000000000000000000000000000000000000000000081526004016113fb90612f4e565b60405180910390fd5b50565b600033905090565b816004600083815260200190815260200160002060006101000a81548173ffffffffffffffffffffffffffffffffffffffff021916908373ffffffffffffffffffffffffffffffffffffffff160217905550808273ffffffffffffffffffffffffffffffffffffffff1661148283610b14565b73ffffffffffffffffffffffffffffffffffffffff167f8c5be1e5ebec7d5bd14f71427d1e84f3dd0314c0f7b2291e5b200ac8c7c3b92560405160405180910390a45050565b6000806114d483610b14565b90508073ffffffffffffffffffffffffffffffffffffffff168473ffffffffffffffffffffffffffffffffffffffff16148061151657506115158185611225565b5b8061155457508373ffffffffffffffffffffffffffffffffffffffff1661153c84610861565b73ffffffffffffffffffffffffffffffffffffffff16145b91505092915050565b8273ffffffffffffffffffffffffffffffffffffffff1661157d82610b14565b73ffffffffffffffffffffffffffffffffffffffff16146115d3576040517f08c379a00000000000000000000000000000000000000000000000000000000081526004016115ca9061347e565b60405180910390fd5b600073ffffffffffffffffffffffffffffffffffffffff168273ffffffffffffffffffffffffffffffffffffffff1603611642576040517f08c379a000000000000000000000000000000000000000000000000000000000815260040161163990613510565b60405180910390fd5b61164f8383836001611f8e565b8273ffffffffffffffffffffffffffffffffffffffff1661166f82610b14565b73ffffffffffffffffffffffffffffffffffffffff16146116c5576040517f08c379a00000000000000000000000000000000000000000000000000000000081526004016116bc9061347e565b60405180910390fd5b6004600082815260200190815260200160002060006101000a81549073ffffffffffffffffffffffffffffffffffffffff02191690556001600360008573ffffffffffffffffffffffffffffffffffffffff1673ffffffffffffffffffffffffffffffffffffffff168152602001908152602001600020600082825403925050819055506001600360008473ffffffffffffffffffffffffffffffffffffffff1673ffffffffffffffffffffffffffffffffffffffff16815260200190815260200160002060008282540192505081905550816002600083815260200190815260200160002060006101000a81548173ffffffffffffffffffffffffffffffffffffffff021916908373ffffffffffffffffffffffffffffffffffffffff160217905550808273ffffffffffffffffffffffffffffffffffffffff168473ffffffffffffffffffffffffffffffffffffffff167fddf252ad1be2c89b69c2b068fc378daa952ba7f163c4a11628f55a4df523b3ef60405160405180910390a46118518383836001611f94565b505050565b61185e611407565b73ffffffffffffffffffffffffffffffffffffffff1661187c610e86565b73ffffffffffffffffffffffffffffffffffffffff16146118d2576040517f08c379a00000000000000000000000000000000000000000000000000000000081526004016118c99061357c565b60405180910390fd5b565b60006002600083815260200190815260200160002060009054906101000a900473ffffffffffffffffffffffffffffffffffffffff169050919050565b6000600660009054906101000a900473ffffffffffffffffffffffffffffffffffffffff16905081600660006101000a81548173ffffffffffffffffffffffffffffffffffffffff021916908373ffffffffffffffffffffffffffffffffffffffff1602179055508173ffffffffffffffffffffffffffffffffffffffff168173ffffffffffffffffffffffffffffffffffffffff167f8be0079c531659141344cd1fd0a4f28419497f9722a3daafe3b4186f6b6457e060405160405180910390a35050565b8173ffffffffffffffffffffffffffffffffffffffff168373ffffffffffffffffffffffffffffffffffffffff1603611a45576040517f08c379a0000000000000000000000000000000000000000000000000000000008152600401611a3c906135e8565b60405180910390fd5b80600560008573ffffffffffffffffffffffffffffffffffffffff1673ffffffffffffffffffffffffffffffffffffffff16815260200190815260200160002060008473ffffffffffffffffffffffffffffffffffffffff1673ffffffffffffffffffffffffffffffffffffffff16815260200190815260200160002060006101000a81548160ff0219169083151502179055508173ffffffffffffffffffffffffffffffffffffffff168373ffffffffffffffffffffffffffffffffffffffff167f17307eab39ab6107e8899845ad3d59bd9653f200f220920489ca2b5937696c3183604051611b3691906125e1565b60405180910390a3505050565b6000825111611b87576040517f08c379a0000000000000000000000000000000000000000000000000000000008152600401611b7e90613654565b60405180910390fd5b6000600883604051611b999190612e7f565b90815260200160405180910390205414611be8576040517f08c379a0000000000000000000000000000000000000000000000000000000008152600401611bdf906136c0565b60405180910390fd5b600073ffffffffffffffffffffffffffffffffffffffff168173ffffffffffffffffffffffffffffffffffffffff1603611c57576040517f08c379a0000000000000000000000000000000000000000000000000000000008152600401611c4e9061372c565b60405180910390fd5b6000600760008154611c689061377b565b919050819055905080600884604051611c819190612e7f565b90815260200160405180910390208190555082600960008381526020019081526020016000209081611cb39190613186565b50611cbe8282611f9a565b6000600a60008473ffffffffffffffffffffffffffffffffffffffff1673ffffffffffffffffffffffffffffffffffffffff1681526020019081526020016000208054611d0a90612c5c565b905003611dad5782600a60008473ffffffffffffffffffffffffffffffffffffffff1673ffffffffffffffffffffffffffffffffffffffff1681526020019081526020016000209081611d5d9190613186565b508173ffffffffffffffffffffffffffffffffffffffff167f44a4610faf9ab0c5cd795892a1cdb4b9d487671479d9a7328447150801b121fa84604051611da4919061268c565b60405180910390a25b808273ffffffffffffffffffffffffffffffffffffffff1684604051611dd39190612e7f565b60405180910390207f19b32006d377795e50309cbfef6336edf2dac8a41b8aa40093296ca5489b4d6760405160405180910390a4505050565b611e1784848461155d565b611e2384848484611fb8565b611e62576040517f08c379a0000000000000000000000000000000000000000000000000000000008152600401611e5990613835565b60405180910390fd5b50505050565b606060405180602001604052806000815250905090565b606060006001611e8e8461213f565b01905060008167ffffffffffffffff811115611ead57611eac612860565b5b6040519080825280601f01601f191660200182016040528015611edf5781602001600182028036833780820191505090505b509050600082602001820190505b600115611f42578080600190039150507f3031323334353637383961626364656600000000000000000000000000000000600a86061a8153600a8581611f3657611f35613855565b5b04945060008503611eed575b819350505050919050565b60008073ffffffffffffffffffffffffffffffffffffffff16611f6f836118d4565b73ffffffffffffffffffffffffffffffffffffffff1614159050919050565b50505050565b50505050565b611fb4828260405180602001604052806000815250612292565b5050565b6000611fd98473ffffffffffffffffffffffffffffffffffffffff166122ed565b15612132578373ffffffffffffffffffffffffffffffffffffffff1663150b7a02612002611407565b8786866040518563ffffffff1660e01b815260040161202494939291906138d9565b6020604051808303816000875af192505050801561206057506040513d601f19601f8201168201806040525081019061205d919061393a565b60015b6120e2573d8060008114612090576040519150601f19603f3d011682016040523d82523d6000602084013e612095565b606091505b5060008151036120da576040517f08c379a00000000000000000000000000000000000000000000000000000000081526004016120d190613835565b60405180910390fd5b805181602001fd5b63150b7a0260e01b7bffffffffffffffffffffffffffffffffffffffffffffffffffffffff1916817bffffffffffffffffffffffffffffffffffffffffffffffffffffffff191614915050612137565b600190505b949350505050565b600080600090507a184f03e93ff9f4daa797ed6e38ed64bf6a1f010000000000000000831061219d577a184f03e93ff9f4daa797ed6e38ed64bf6a1f010000000000000000838161219357612192613855565b5b0492506040810190505b6d04ee2d6d415b85acef810000000083106121da576d04ee2d6d415b85acef810000000083816121d0576121cf613855565b5b0492506020810190505b662386f26fc10000831061220957662386f26fc1000083816121ff576121fe613855565b5b0492506010810190505b6305f5e1008310612232576305f5e100838161222857612227613855565b5b0492506008810190505b612710831061225757612710838161224d5761224c613855565b5b0492506004810190505b6064831061227a57606483816122705761226f613855565b5b0492506002810190505b600a8310612289576001810190505b80915050919050565b61229c8383612310565b6122a96000848484611fb8565b6122e8576040517f08c379a00000000000000000000000000000000000000000000000000000000081526004016122df90613835565b60405180910390fd5b505050565b6000808273ffffffffffffffffffffffffffffffffffffffff163b119050919050565b600073ffffffffffffffffffffffffffffffffffffffff168273ffffffffffffffffffffffffffffffffffffffff160361237f576040517f08c379a0000000000000000000000000000000000000000000000000000000008152600401612376906139b3565b60405180910390fd5b61238881611f4d565b156123c8576040517f08c379a00000000000000000000000000000000000000000000000000000000081526004016123bf90613a1f565b60405180910390fd5b6123d6600083836001611f8e565b6123df81611f4d565b1561241f576040517f08c379a000000000000000000000000000000000000000000000000000000000815260040161241690613a1f565b60405180910390fd5b6001600360008473ffffffffffffffffffffffffffffffffffffffff1673ffffffffffffffffffffffffffffffffffffffff16815260200190815260200160002060008282540192505081905550816002600083815260200190815260200160002060006101000a81548173ffffffffffffffffffffffffffffffffffffffff021916908373ffffffffffffffffffffffffffffffffffffffff160217905550808273ffffffffffffffffffffffffffffffffffffffff16600073ffffffffffffffffffffffffffffffffffffffff167fddf252ad1be2c89b69c2b068fc378daa952ba7f163c4a11628f55a4df523b3ef60405160405180910390a4612529600083836001611f94565b5050565b6000604051905090565b600080fd5b600080fd5b60007fffffffff0000000000000000000000000000000000000000000000000000000082169050919050565b61257681612541565b811461258157600080fd5b50565b6000813590506125938161256d565b92915050565b6000602082840312156125af576125ae612537565b5b60006125bd84828501612584565b91505092915050565b60008115159050919050565b6125db816125c6565b82525050565b60006020820190506125f660008301846125d2565b92915050565b600081519050919050565b600082825260208201905092915050565b60005b8381101561263657808201518184015260208101905061261b565b60008484015250505050565b6000601f19601f8301169050919050565b600061265e826125fc565b6126688185612607565b9350612678818560208601612618565b61268181612642565b840191505092915050565b600060208201905081810360008301526126a68184612653565b905092915050565b6000819050919050565b6126c1816126ae565b81146126cc57600080fd5b50565b6000813590506126de816126b8565b92915050565b6000602082840312156126fa576126f9612537565b5b6000612708848285016126cf565b91505092915050565b600073ffffffffffffffffffffffffffffffffffffffff82169050919050565b600061273c82612711565b9050919050565b61274c81612731565b82525050565b60006020820190506127676000830184612743565b92915050565b61277681612731565b811461278157600080fd5b50565b6000813590506127938161276d565b92915050565b600080604083850312156127b0576127af612537565b5b60006127be85828601612784565b92505060206127cf858286016126cf565b9150509250929050565b6127e2816126ae565b82525050565b60006020820190506127fd60008301846127d9565b92915050565b60008060006060848603121561281c5761281b612537565b5b600061282a86828701612784565b935050602061283b86828701612784565b925050604061284c868287016126cf565b9150509250925092565b600080fd5b600080fd5b7f4e487b7100000000000000000000000000000000000000000000000000000000600052604160045260246000fd5b61289882612642565b810181811067ffffffffffffffff821117156128b7576128b6612860565b5b80604052505050565b60006128ca61252d565b90506128d6828261288f565b919050565b600067ffffffffffffffff8211156128f6576128f5612860565b5b6128ff82612642565b9050602081019050919050565b82818337600083830152505050565b600061292e612929846128db565b6128c0565b90508281526020810184848401111561294a5761294961285b565b5b61295584828561290c565b509392505050565b600082601f83011261297257612971612856565b5b813561298284826020860161291b565b91505092915050565b6000602082840312156129a1576129a0612537565b5b600082013567ffffffffffffffff8111156129bf576129be61253c565b5b6129cb8482850161295d565b91505092915050565b6000602082840312156129ea576129e9612537565b5b60006129f884828501612784565b91505092915050565b612a0a816125c6565b8114612a1557600080fd5b50565b600081359050612a2781612a01565b92915050565b60008060408385031215612a4457612a43612537565b5b6000612a5285828601612784565b9250506020612a6385828601612a18565b9150509250929050565b600067ffffffffffffffff821115612a8857612a87612860565b5b612a9182612642565b9050602081019050919050565b6000612ab1612aac84612a6d565b6128c0565b905082815260208101848484011115612acd57612acc61285b565b5b612ad884828561290c565b509392505050565b600082601f830112612af557612af4612856565b5b8135612b05848260208601612a9e565b91505092915050565b60008060008060808587031215612b2857612b27612537565b5b6000612b3687828801612784565b9450506020612b4787828801612784565b9350506040612b58878288016126cf565b925050606085013567ffffffffffffffff811115612b7957612b7861253c565b5b612b8587828801612ae0565b91505092959194509250565b60008060408385031215612ba857612ba7612537565b5b6000612bb685828601612784565b9250506020612bc785828601612784565b9150509250929050565b60008060408385031215612be857612be7612537565b5b600083013567ffffffffffffffff811115612c0657612c0561253c565b5b612c128582860161295d565b9250506020612c2385828601612784565b9150509250929050565b7f4e487b7100000000000000000000000000000000000000000000000000000000600052602260045260246000fd5b60006002820490506001821680612c7457607f821691505b602082108103612c8757612c86612c2d565b5b50919050565b7f4552433732313a20617070726f76616c20746f2063757272656e74206f776e6560008201527f7200000000000000000000000000000000000000000000000000000000000000602082015250565b6000612ce9602183612607565b9150612cf482612c8d565b604082019050919050565b60006020820190508181036000830152612d1881612cdc565b9050919050565b7f4552433732313a20617070726f76652063616c6c6572206973206e6f7420746f60008201527f6b656e206f776e6572206f7220617070726f76656420666f7220616c6c000000602082015250565b6000612d7b603d83612607565b9150612d8682612d1f565b604082019050919050565b60006020820190508181036000830152612daa81612d6e565b9050919050565b7f4552433732313a2063616c6c6572206973206e6f7420746f6b656e206f776e6560008201527f72206f7220617070726f76656400000000000000000000000000000000000000602082015250565b6000612e0d602d83612607565b9150612e1882612db1565b604082019050919050565b60006020820190508181036000830152612e3c81612e00565b9050919050565b600081905092915050565b6000612e59826125fc565b612e638185612e43565b9350612e73818560208601612618565b80840191505092915050565b6000612e8b8284612e4e565b915081905092915050565b7f446f6d61696e206e6f7420726567697374657265640000000000000000000000600082015250565b6000612ecc601583612607565b9150612ed782612e96565b602082019050919050565b60006020820190508181036000830152612efb81612ebf565b9050919050565b7f4552433732313a20696e76616c696420746f6b656e2049440000000000000000600082015250565b6000612f38601883612607565b9150612f4382612f02565b602082019050919050565b60006020820190508181036000830152612f6781612f2b565b9050919050565b7f596f7520646f206e6f74206f776e207468697320646f6d61696e000000000000600082015250565b6000612fa4601a83612607565b9150612faf82612f6e565b602082019050919050565b60006020820190508181036000830152612fd381612f97565b9050919050565b60008190508160005260206000209050919050565b60006020601f8301049050919050565b600082821b905092915050565b60006008830261303c7fffffffffffffffffffffffffffffffffffffffffffffffffffffffffffffffff82612fff565b6130468683612fff565b95508019841693508086168417925050509392505050565b6000819050919050565b600061308361307e613079846126ae565b61305e565b6126ae565b9050919050565b6000819050919050565b61309d83613068565b6130b16130a98261308a565b84845461300c565b825550505050565b600090565b6130c66130b9565b6130d1818484613094565b505050565b5b818110156130f5576130ea6000826130be565b6001810190506130d7565b5050565b601f82111561313a5761310b81612fda565b61311484612fef565b81016020851015613123578190505b61313761312f85612fef565b8301826130d6565b50505b505050565b600082821c905092915050565b600061315d6000198460080261313f565b1980831691505092915050565b6000613176838361314c565b9150826002028217905092915050565b61318f826125fc565b67ffffffffffffffff8111156131a8576131a7612860565b5b6131b28254612c5c565b6131bd8282856130f9565b600060209050601f8311600181146131f057600084156131de578287015190505b6131e8858261316a565b865550613250565b601f1984166131fe86612fda565b60005b8281101561322657848901518255600182019150602085019450602081019050613201565b86831015613243578489015161323f601f89168261314c565b8355505b6001600288020188555050505b505050505050565b7f4552433732313a2061646472657373207a65726f206973206e6f74206120766160008201527f6c6964206f776e65720000000000000000000000000000000000000000000000602082015250565b60006132b4602983612607565b91506132bf82613258565b604082019050919050565b600060208201905081810360008301526132e3816132a7565b9050919050565b7f496e73756666696369656e74206665652070726f766964656400000000000000600082015250565b6000613320601983612607565b915061332b826132ea565b602082019050919050565b6000602082019050818103600083015261334f81613313565b9050919050565b60006133628285612e4e565b915061336e8284612e4e565b91508190509392505050565b7f4f776e61626c653a206e6577206f776e657220697320746865207a65726f206160008201527f6464726573730000000000000000000000000000000000000000000000000000602082015250565b60006133d6602683612607565b91506133e18261337a565b604082019050919050565b60006020820190508181036000830152613405816133c9565b9050919050565b7f4552433732313a207472616e736665722066726f6d20696e636f72726563742060008201527f6f776e6572000000000000000000000000000000000000000000000000000000602082015250565b6000613468602583612607565b91506134738261340c565b604082019050919050565b600060208201905081810360008301526134978161345b565b9050919050565b7f4552433732313a207472616e7366657220746f20746865207a65726f2061646460008201527f7265737300000000000000000000000000000000000000000000000000000000602082015250565b60006134fa602483612607565b91506135058261349e565b604082019050919050565b60006020820190508181036000830152613529816134ed565b9050919050565b7f4f776e61626c653a2063616c6c6572206973206e6f7420746865206f776e6572600082015250565b6000613566602083612607565b915061357182613530565b602082019050919050565b6000602082019050818103600083015261359581613559565b9050919050565b7f4552433732313a20617070726f766520746f2063616c6c657200000000000000600082015250565b60006135d2601983612607565b91506135dd8261359c565b602082019050919050565b60006020820190508181036000830152613601816135c5565b9050919050565b7f446f6d61696e206e616d652063616e6e6f7420626520656d7074790000000000600082015250565b600061363e601b83612607565b915061364982613608565b602082019050919050565b6000602082019050818103600083015261366d81613631565b9050919050565b7f446f6d61696e20616c7265616479207265676973746572656400000000000000600082015250565b60006136aa601983612607565b91506136b582613674565b602082019050919050565b600060208201905081810360008301526136d98161369d565b9050919050565b7f43616e6e6f7420726567697374657220746f207a65726f206164647265737300600082015250565b6000613716601f83612607565b9150613721826136e0565b602082019050919050565b6000602082019050818103600083015261374581613709565b9050919050565b7f4e487b7100000000000000000000000000000000000000000000000000000000600052601160045260246000fd5b6000613786826126ae565b91507fffffffffffffffffffffffffffffffffffffffffffffffffffffffffffffffff82036137b8576137b761374c565b5b600182019050919050565b7f4552433732313a207472616e7366657220746f206e6f6e20455243373231526560008201527f63656976657220696d706c656d656e7465720000000000000000000000000000602082015250565b600061381f603283612607565b915061382a826137c3565b604082019050919050565b6000602082019050818103600083015261384e81613812565b9050919050565b7f4e487b7100000000000000000000000000000000000000000000000000000000600052601260045260246000fd5b600081519050919050565b600082825260208201905092915050565b60006138ab82613884565b6138b5818561388f565b93506138c5818560208601612618565b6138ce81612642565b840191505092915050565b60006080820190506138ee6000830187612743565b6138fb6020830186612743565b61390860408301856127d9565b818103606083015261391a81846138a0565b905095945050505050565b6000815190506139348161256d565b92915050565b6000602082840312156139505761394f612537565b5b600061395e84828501613925565b91505092915050565b7f4552433732313a206d696e7420746f20746865207a65726f2061646472657373600082015250565b600061399d602083612607565b91506139a882613967565b602082019050919050565b600060208201905081810360008301526139cc81613990565b9050919050565b7f4552433732313a20746f6b656e20616c7265616479206d696e74656400000000600082015250565b6000613a09601c83612607565b9150613a14826139d3565b602082019050919050565b60006020820190508181036000830152613a38816139fc565b905091905056fea26469706673582212201a48115f358f77d04bed670e17b14a96b4561065a928f5096578ac356022311c64736f6c63430008140033",
  "linkReferences": {},
  "deployedLinkReferences": {}
}