{
  "_format": "hh-sol-artifact-1",
  "contractName": "MezoDomains",
  "sourceName": "contracts/MezoDomains.sol",
  "abi": [
    {
      "inputs": [],
      "stateMutability": "nonpayable",
      "type": "constructor"
    },
    {
      "anonymous": false,
      "inputs": [
        {
          "indexed": true,
          "internalType": "address",
          "name": "owner",
          "type": "address"
        },
        {
          "indexed": true,
          "internalType": "address",
          "name": "approved",
          "type": "address"
        },
        {
          "indexed": true,
          "internalType": "uint256",
          "name": "tokenId",
          "type": "uint256"
        }
      ],
      "name": "Approval",
      "type": "event"
    },
    {
      "anonymous": false,
      "inputs": [
        {
          "indexed": true,
          "internalType": "address",
          "name": "owner",
          "type": "address"
        },
        {
          "indexed": true,
          "internalType": "address",
          "name": "operator",
          "type": "address"
        },
        {
          "indexed": false,
          "internalType": "bool",
          "name": "approved",
          "type": "bool"
        }
      ],
      "name": "ApprovalForAll",
      "type": "event"
    },
    {
      "anonymous": false,
      "inputs": [
        {
          "indexed": true,
          "internalType": "string",
          "name": "domainName",
          "type": "string"
        },
        {
          "indexed": true,
          "internalType": "address",
          "name": "owner",
          "type": "address"
        },
        {
          "indexed": true,
          "internalType": "uint256",
          "name": "tokenId",
          "type": "uint256"
        }
      ],
      "name": "DomainRegistered",
      "type": "event"
    },
    {
      "anonymous": false,
      "inputs": [
        {
          "indexed": true,
          "internalType": "address",
          "name": "previousOwner",
          "type": "address"
        },
        {
          "indexed": true,
          "internalType": "address",
          "name": "newOwner",
          "type": "address"
        }
      ],
      "name": "OwnershipTransferred",
      "type": "event"
    },
    {
      "anonymous": false,
      "inputs": [
        {
          "indexed": true,
          "internalType": "address",
          "name": "from",
          "type": "address"
        },
        {
          "indexed": true,
          "internalType": "address",
          "name": "to",
          "type": "address"
        },
        {
          "indexed": true,
          "internalType": "uint256",
          "name": "tokenId",
          "type": "uint256"
        }
      ],
      "name": "Transfer",
      "type": "event"
    },
    {
      "inputs": [
        {
          "internalType": "address",
          "name": "to",
          "type": "address"
        },
        {
          "internalType": "uint256",
          "name": "tokenId",
          "type": "uint256"
        }
      ],
      "name": "approve",
      "outputs": [],
      "stateMutability": "nonpayable",
      "type": "function"
    },
    {
      "inputs": [
        {
          "internalType": "address",
          "name": "owner",
          "type": "address"
        }
      ],
      "name": "balanceOf",
      "outputs": [
        {
          "internalType": "uint256",
          "name": "",
          "type": "uint256"
        }
      ],
      "stateMutability": "view",
      "type": "function"
    },
    {
      "inputs": [
        {
          "internalType": "string",
          "name": "",
          "type": "string"
        }
      ],
      "name": "domainToTokenId",
      "outputs": [
        {
          "internalType": "uint256",
          "name": "",
          "type": "uint256"
        }
      ],
      "stateMutability": "view",
      "type": "function"
    },
    {
      "inputs": [
        {
          "internalType": "uint256",
          "name": "tokenId",
          "type": "uint256"
        }
      ],
      "name": "getApproved",
      "outputs": [
        {
          "internalType": "address",
          "name": "",
          "type": "address"
        }
      ],
      "stateMutability": "view",
      "type": "function"
    },
    {
      "inputs": [
        {
          "internalType": "string",
          "name": "_domainName",
          "type": "string"
        }
      ],
      "name": "getDomainOwner",
      "outputs": [
        {
          "internalType": "address",
          "name": "",
          "type": "address"
        }
      ],
      "stateMutability": "view",
      "type": "function"
    },
    {
      "inputs": [
        {
          "internalType": "address",
          "name": "owner",
          "type": "address"
        },
        {
          "internalType": "address",
          "name": "operator",
          "type": "address"
        }
      ],
      "name": "isApprovedForAll",
      "outputs": [
        {
          "internalType": "bool",
          "name": "",
          "type": "bool"
        }
      ],
      "stateMutability": "view",
      "type": "function"
    },
    {
      "inputs": [],
      "name": "name",
      "outputs": [
        {
          "internalType": "string",
          "name": "",
          "type": "string"
        }
      ],
      "stateMutability": "view",
      "type": "function"
    },
    {
      "inputs": [],
      "name": "nextTokenId",
      "outputs": [
        {
          "internalType": "uint256",
          "name": "",
          "type": "uint256"
        }
      ],
      "stateMutability": "view",
      "type": "function"
    },
    {
      "inputs": [],
      "name": "owner",
      "outputs": [
        {
          "internalType": "address",
          "name": "",
          "type": "address"
        }
      ],
      "stateMutability": "view",
      "type": "function"
    },
    {
      "inputs": [
        {
          "internalType": "uint256",
          "name": "tokenId",
          "type": "uint256"
        }
      ],
      "name": "ownerOf",
      "outputs": [
        {
          "internalType": "address",
          "name": "",
          "type": "address"
        }
      ],
      "stateMutability": "view",
      "type": "function"
    },
    {
      "inputs": [
        {
          "internalType": "string",
          "name": "_domainName",
          "type": "string"
        }
      ],
      "name": "registerDomain",
      "outputs": [],
      "stateMutability": "payable",
      "type": "function"
    },
    {
      "inputs": [
        {
          "internalType": "string",
          "name": "_domainName",
          "type": "string"
        },
        {
          "internalType": "address",
          "name": "_to",
          "type": "address"
        }
      ],
      "name": "registerDomainFor",
      "outputs": [],
      "stateMutability": "payable",
      "type": "function"
    },
    {
      "inputs": [],
      "name": "registrationFee",
      "outputs": [
        {
          "internalType": "uint256",
          "name": "",
          "type": "uint256"
        }
      ],
      "stateMutability": "view",
      "type": "function"
    },
    {
      "inputs": [],
      "name": "renounceOwnership",
      "outputs": [],
      "stateMutability": "nonpayable",
      "type": "function"
    },
    {
      "inputs": [
        {
          "internalType": "address",
          "name": "from",
          "type": "address"
        },
        {
          "internalType": "address",
          "name": "to",
          "type": "address"
        },
        {
          "internalType": "uint256",
          "name": "tokenId",
          "type": "uint256"
        }
      ],
      "name": "safeTransferFrom",
      "outputs": [],
      "stateMutability": "nonpayable",
      "type": "function"
    },
    {
      "inputs": [
        {
          "internalType": "address",
          "name": "from",
          "type": "address"
        },
        {
          "internalType": "address",
          "name": "to",
          "type": "address"
        },
        {
          "internalType": "uint256",
          "name": "tokenId",
          "type": "uint256"
        },
        {
          "internalType": "bytes",
          "name": "data",
          "type": "bytes"
        }
      ],
      "name": "safeTransferFrom",
      "outputs": [],
      "stateMutability": "nonpayable",
      "type": "function"
    },
    {
      "inputs": [
        {
          "internalType": "address",
          "name": "operator",
          "type": "address"
        },
        {
          "internalType": "bool",
          "name": "approved",
          "type": "bool"
        }
      ],
      "name": "setApprovalForAll",
      "outputs": [],
      "stateMutability": "nonpayable",
      "type": "function"
    },
    {
      "inputs": [
        {
          "internalType": "uint256",
          "name": "_newFee",
          "type": "uint256"
        }
      ],
      "name": "setRegistrationFee",
      "outputs": [],
      "stateMutability": "nonpayable",
      "type": "function"
    },
    {
      "inputs": [
        {
          "internalType": "bytes4",
          "name": "interfaceId",
          "type": "bytes4"
        }
      ],
      "name": "supportsInterface",
      "outputs": [
        {
          "internalType": "bool",
          "name": "",
          "type": "bool"
        }
      ],
      "stateMutability": "view",
      "type": "function"
    },
    {
      "inputs": [],
      "name": "symbol",
      "outputs": [
        {
          "internalType": "string",
          "name": "",
          "type": "string"
        }
      ],
      "stateMutability": "view",
      "type": "function"
    },
    {
      "inputs": [
        {
          "internalType": "uint256",
          "name": "",
          "type": "uint256"
        }
      ],
      "name": "tokenIdToDomain",
      "outputs": [
        {
          "internalType": "string",
          "name": "",
          "type": "string"
        }
      ],
      "stateMutability": "view",
      "type": "function"
    },
    {
      "inputs": [
        {
          "internalType": "uint256",
          "name": "tokenId",
          "type": "uint256"
        }
      ],
      "name": "tokenURI",
      "outputs": [
        {
          "internalType": "string",
          "name": "",
          "type": "string"
        }
      ],
      "stateMutability": "view",
      "type": "function"
    },
    {
      "inputs": [
        {
          "internalType": "address",
          "name": "from",
          "type": "address"
        },
        {
          "internalType": "address",
          "name": "to",
          "type": "address"
        },
        {
          "internalType": "uint256",
          "name": "tokenId",
          "type": "uint256"
        }
      ],
      "name": "transferFrom",
      "outputs": [],
      "stateMutability": "nonpayable",
      "type": "function"
    },
    {
      "inputs": [
        {
          "internalType": "address",
          "name": "newOwner",
          "type": "address"
        }
      ],
      "name": "transferOwnership",
      "outputs": [],
      "stateMutability": "nonpayable",
      "type": "function"
    },
    {
      "inputs": [],
      "name": "withdrawFunds",
      "outputs": [],
      "stateMutability": "nonpayable",
      "type": "function"
    }
  ],
  "bytecode": "0x6080604052655af3107a4000600a553480156200001b57600080fd5b506040518060400160405280600c81526020017f4d657a6f20446f6d61696e7300000000000000000000000000000000000000008152506040518060400160405280600381526020017f4d5a44000000000000000000000000000000000000000000000000000000000081525081600090816200009991906200042d565b508060019081620000ab91906200042d565b505050620000ce620000c2620000e560201b60201c565b620000ed60201b60201c565b620000df33620000ed60201b60201c565b62000514565b600033905090565b6000600660009054906101000a900473ffffffffffffffffffffffffffffffffffffffff16905081600660006101000a81548173ffffffffffffffffffffffffffffffffffffffff021916908373ffffffffffffffffffffffffffffffffffffffff1602179055508173ffffffffffffffffffffffffffffffffffffffff168173ffffffffffffffffffffffffffffffffffffffff167f8be0079c531659141344cd1fd0a4f28419497f9722a3daafe3b4186f6b6457e060405160405180910390a35050565b600081519050919050565b7f4e487b7100000000000000000000000000000000000000000000000000000000600052604160045260246000fd5b7f4e487b7100000000000000000000000000000000000000000000000000000000600052602260045260246000fd5b600060028204905060018216806200023557607f821691505b6020821081036200024b576200024a620001ed565b5b50919050565b60008190508160005260206000209050919050565b60006020601f8301049050919050565b600082821b905092915050565b600060088302620002b57fffffffffffffffffffffffffffffffffffffffffffffffffffffffffffffffff8262000276565b620002c1868362000276565b95508019841693508086168417925050509392505050565b6000819050919050565b6000819050919050565b60006200030e620003086200030284620002d9565b620002e3565b620002d9565b9050919050565b6000819050919050565b6200032a83620002ed565b62000342620003398262000315565b84845462000283565b825550505050565b600090565b620003596200034a565b620003668184846200031f565b505050565b5b818110156200038e57620003826000826200034f565b6001810190506200036c565b5050565b601f821115620003dd57620003a78162000251565b620003b28462000266565b81016020851015620003c2578190505b620003da620003d18562000266565b8301826200036b565b50505b505050565b600082821c905092915050565b60006200040260001984600802620003e2565b1980831691505092915050565b60006200041d8383620003ef565b9150826002028217905092915050565b6200043882620001b3565b67ffffffffffffffff811115620004545762000453620001be565b5b6200046082546200021c565b6200046d82828562000392565b600060209050601f831160018114620004a5576000841562000490578287015190505b6200049c85826200040f565b8655506200050c565b601f198416620004b58662000251565b60005b82811015620004df57848901518255600182019150602085019450602081019050620004b8565b86831015620004ff5784890151620004fb601f891682620003ef565b8355505b6001600288020188555050505b505050505050565b61351780620005246000396000f3fe6080604052600436106101665760003560e01c806375794a3c116100d1578063b88d4fde1161008a578063c87b56dd11610064578063c87b56dd1461052d578063e985e9c51461056a578063f2fde38b146105a7578063f3103730146105d057610166565b8063b88d4fde1461049e578063bca6eec4146104c7578063c320c7271461050457610166565b806375794a3c1461039b5780638cd108de146103c65780638da5cb5b1461040357806395d89b411461042e578063a22cb46514610459578063a5cad08a1461048257610166565b806324600fc31161012357806324600fc31461028d57806325970115146102a457806342842e0e146102e15780636352211e1461030a57806370a0823114610347578063715018a61461038457610166565b806301ffc9a71461016b57806306fdde03146101a8578063081812fc146101d3578063095ea7b31461021057806314c44e091461023957806323b872dd14610264575b600080fd5b34801561017757600080fd5b50610192600480360381019061018d91906120a7565b6105ec565b60405161019f91906120ef565b60405180910390f35b3480156101b457600080fd5b506101bd6106ce565b6040516101ca919061219a565b60405180910390f35b3480156101df57600080fd5b506101fa60048036038101906101f591906121f2565b610760565b6040516102079190612260565b60405180910390f35b34801561021c57600080fd5b50610237600480360381019061023291906122a7565b6107a6565b005b34801561024557600080fd5b5061024e6108bd565b60405161025b91906122f6565b60405180910390f35b34801561027057600080fd5b5061028b60048036038101906102869190612311565b6108c3565b005b34801561029957600080fd5b506102a2610923565b005b3480156102b057600080fd5b506102cb60048036038101906102c69190612499565b61097b565b6040516102d89190612260565b60405180910390f35b3480156102ed57600080fd5b5061030860048036038101906103039190612311565b6109f3565b005b34801561031657600080fd5b50610331600480360381019061032c91906121f2565b610a13565b60405161033e9190612260565b60405180910390f35b34801561035357600080fd5b5061036e600480360381019061036991906124e2565b610a99565b60405161037b91906122f6565b60405180910390f35b34801561039057600080fd5b50610399610b50565b005b3480156103a757600080fd5b506103b0610b64565b6040516103bd91906122f6565b60405180910390f35b3480156103d257600080fd5b506103ed60048036038101906103e891906121f2565b610b6a565b6040516103fa919061219a565b60405180910390f35b34801561040f57600080fd5b50610418610c0a565b6040516104259190612260565b60405180910390f35b34801561043a57600080fd5b50610443610c34565b604051610450919061219a565b60405180910390f35b34801561046557600080fd5b50610480600480360381019061047b919061253b565b610cc6565b005b61049c60048036038101906104979190612499565b610cdc565b005b3480156104aa57600080fd5b506104c560048036038101906104c0919061261c565b610ce9565b005b3480156104d357600080fd5b506104ee60048036038101906104e99190612499565b610d4b565b6040516104fb91906122f6565b60405180910390f35b34801561051057600080fd5b5061052b600480360381019061052691906121f2565b610d79565b005b34801561053957600080fd5b50610554600480360381019061054f91906121f2565b610d8b565b604051610561919061219a565b60405180910390f35b34801561057657600080fd5b50610591600480360381019061058c919061269f565b610df3565b60405161059e91906120ef565b60405180910390f35b3480156105b357600080fd5b506105ce60048036038101906105c991906124e2565b610e87565b005b6105ea60048036038101906105e591906126df565b610f0a565b005b60007f80ac58cd000000000000000000000000000000000000000000000000000000007bffffffffffffffffffffffffffffffffffffffffffffffffffffffff1916827bffffffffffffffffffffffffffffffffffffffffffffffffffffffff191614806106b757507f5b5e139f000000000000000000000000000000000000000000000000000000007bffffffffffffffffffffffffffffffffffffffffffffffffffffffff1916827bffffffffffffffffffffffffffffffffffffffffffffffffffffffff1916145b806106c757506106c682611129565b5b9050919050565b6060600080546106dd9061276a565b80601f01602080910402602001604051908101604052809291908181526020018280546107099061276a565b80156107565780601f1061072b57610100808354040283529160200191610756565b820191906000526020600020905b81548152906001019060200180831161073957829003601f168201915b5050505050905090565b600061076b82611193565b6004600083815260200190815260200160002060009054906101000a900473ffffffffffffffffffffffffffffffffffffffff169050919050565b60006107b182610a13565b90508073ffffffffffffffffffffffffffffffffffffffff168373ffffffffffffffffffffffffffffffffffffffff1603610821576040517f08c379a00000000000000000000000000000000000000000000000000000000081526004016108189061280d565b60405180910390fd5b8073ffffffffffffffffffffffffffffffffffffffff166108406111de565b73ffffffffffffffffffffffffffffffffffffffff16148061086f575061086e816108696111de565b610df3565b5b6108ae576040517f08c379a00000000000000000000000000000000000000000000000000000000081526004016108a59061289f565b60405180910390fd5b6108b883836111e6565b505050565b600a5481565b6108d46108ce6111de565b8261129f565b610913576040517f08c379a000000000000000000000000000000000000000000000000000000000815260040161090a90612931565b60405180910390fd5b61091e838383611334565b505050565b61092b61162d565b610933610c0a565b73ffffffffffffffffffffffffffffffffffffffff166108fc479081150290604051600060405180830381858888f19350505050158015610978573d6000803e3d6000fd5b50565b60008060088360405161098e919061298d565b9081526020016040518091039020549050600081036109e2576040517f08c379a00000000000000000000000000000000000000000000000000000000081526004016109d9906129f0565b60405180910390fd5b6109eb81610a13565b915050919050565b610a0e83838360405180602001604052806000815250610ce9565b505050565b600080610a1f836116ab565b9050600073ffffffffffffffffffffffffffffffffffffffff168173ffffffffffffffffffffffffffffffffffffffff1603610a90576040517f08c379a0000000000000000000000000000000000000000000000000000000008152600401610a8790612a5c565b60405180910390fd5b80915050919050565b60008073ffffffffffffffffffffffffffffffffffffffff168273ffffffffffffffffffffffffffffffffffffffff1603610b09576040517f08c379a0000000000000000000000000000000000000000000000000000000008152600401610b0090612aee565b60405180910390fd5b600360008373ffffffffffffffffffffffffffffffffffffffff1673ffffffffffffffffffffffffffffffffffffffff168152602001908152602001600020549050919050565b610b5861162d565b610b6260006116e8565b565b60075481565b60096020528060005260406000206000915090508054610b899061276a565b80601f0160208091040260200160405190810160405280929190818152602001828054610bb59061276a565b8015610c025780601f10610bd757610100808354040283529160200191610c02565b820191906000526020600020905b815481529060010190602001808311610be557829003601f168201915b505050505081565b6000600660009054906101000a900473ffffffffffffffffffffffffffffffffffffffff16905090565b606060018054610c439061276a565b80601f0160208091040260200160405190810160405280929190818152602001828054610c6f9061276a565b8015610cbc5780601f10610c9157610100808354040283529160200191610cbc565b820191906000526020600020905b815481529060010190602001808311610c9f57829003601f168201915b5050505050905090565b610cd8610cd16111de565b83836117ae565b5050565b610ce68133610f0a565b50565b610cfa610cf46111de565b8361129f565b610d39576040517f08c379a0000000000000000000000000000000000000000000000000000000008152600401610d3090612931565b60405180910390fd5b610d458484848461191a565b50505050565b6008818051602081018201805184825260208301602085012081835280955050505050506000915090505481565b610d8161162d565b80600a8190555050565b6060610d9682611193565b6000610da0611976565b90506000815111610dc05760405180602001604052806000815250610deb565b80610dca8461198d565b604051602001610ddb929190612b0e565b6040516020818303038152906040525b915050919050565b6000600560008473ffffffffffffffffffffffffffffffffffffffff1673ffffffffffffffffffffffffffffffffffffffff16815260200190815260200160002060008373ffffffffffffffffffffffffffffffffffffffff1673ffffffffffffffffffffffffffffffffffffffff16815260200190815260200160002060009054906101000a900460ff16905092915050565b610e8f61162d565b600073ffffffffffffffffffffffffffffffffffffffff168173ffffffffffffffffffffffffffffffffffffffff1603610efe576040517f08c379a0000000000000000000000000000000000000000000000000000000008152600401610ef590612ba4565b60405180910390fd5b610f07816116e8565b50565b6000825111610f4e576040517f08c379a0000000000000000000000000000000000000000000000000000000008152600401610f4590612c10565b60405180910390fd5b6000600883604051610f60919061298d565b90815260200160405180910390205414610faf576040517f08c379a0000000000000000000000000000000000000000000000000000000008152600401610fa690612c7c565b60405180910390fd5b600073ffffffffffffffffffffffffffffffffffffffff168173ffffffffffffffffffffffffffffffffffffffff160361101e576040517f08c379a000000000000000000000000000000000000000000000000000000000815260040161101590612ce8565b60405180910390fd5b600a54341015611063576040517f08c379a000000000000000000000000000000000000000000000000000000000815260040161105a90612d54565b60405180910390fd5b600060076000815461107490612da3565b91905081905590508060088460405161108d919061298d565b908152602001604051809103902081905550826009600083815260200190815260200160002090816110bf9190612f97565b506110ca8282611a5b565b808273ffffffffffffffffffffffffffffffffffffffff16846040516110f0919061298d565b60405180910390207f19b32006d377795e50309cbfef6336edf2dac8a41b8aa40093296ca5489b4d6760405160405180910390a4505050565b60007f01ffc9a7000000000000000000000000000000000000000000000000000000007bffffffffffffffffffffffffffffffffffffffffffffffffffffffff1916827bffffffffffffffffffffffffffffffffffffffffffffffffffffffff1916149050919050565b61119c81611a79565b6111db576040517f08c379a00000000000000000000000000000000000000000000000000000000081526004016111d290612a5c565b60405180910390fd5b50565b600033905090565b816004600083815260200190815260200160002060006101000a81548173ffffffffffffffffffffffffffffffffffffffff021916908373ffffffffffffffffffffffffffffffffffffffff160217905550808273ffffffffffffffffffffffffffffffffffffffff1661125983610a13565b73ffffffffffffffffffffffffffffffffffffffff167f8c5be1e5ebec7d5bd14f71427d1e84f3dd0314c0f7b2291e5b200ac8c7c3b92560405160405180910390a45050565b6000806112ab83610a13565b90508073ffffffffffffffffffffffffffffffffffffffff168473ffffffffffffffffffffffffffffffffffffffff1614806112ed57506112ec8185610df3565b5b8061132b57508373ffffffffffffffffffffffffffffffffffffffff1661131384610760565b73ffffffffffffffffffffffffffffffffffffffff16145b91505092915050565b8273ffffffffffffffffffffffffffffffffffffffff1661135482610a13565b73ffffffffffffffffffffffffffffffffffffffff16146113aa576040517f08c379a00000000000000000000000000000000000000000000000000000000081526004016113a1906130db565b60405180910390fd5b600073ffffffffffffffffffffffffffffffffffffffff168273ffffffffffffffffffffffffffffffffffffffff1603611419576040517f08c379a00000000000000000000000000000000000000000000000000000000081526004016114109061316d565b60405180910390fd5b6114268383836001611aba565b8273ffffffffffffffffffffffffffffffffffffffff1661144682610a13565b73ffffffffffffffffffffffffffffffffffffffff161461149c576040517f08c379a0000000000000000000000000000000000000000000000000000000008152600401611493906130db565b60405180910390fd5b6004600082815260200190815260200160002060006101000a81549073ffffffffffffffffffffffffffffffffffffffff02191690556001600360008573ffffffffffffffffffffffffffffffffffffffff1673ffffffffffffffffffffffffffffffffffffffff168152602001908152602001600020600082825403925050819055506001600360008473ffffffffffffffffffffffffffffffffffffffff1673ffffffffffffffffffffffffffffffffffffffff16815260200190815260200160002060008282540192505081905550816002600083815260200190815260200160002060006101000a81548173ffffffffffffffffffffffffffffffffffffffff021916908373ffffffffffffffffffffffffffffffffffffffff160217905550808273ffffffffffffffffffffffffffffffffffffffff168473ffffffffffffffffffffffffffffffffffffffff167fddf252ad1be2c89b69c2b068fc378daa952ba7f163c4a11628f55a4df523b3ef60405160405180910390a46116288383836001611ac0565b505050565b6116356111de565b73ffffffffffffffffffffffffffffffffffffffff16611653610c0a565b73ffffffffffffffffffffffffffffffffffffffff16146116a9576040517f08c379a00000000000000000000000000000000000000000000000000000000081526004016116a0906131d9565b60405180910390fd5b565b60006002600083815260200190815260200160002060009054906101000a900473ffffffffffffffffffffffffffffffffffffffff169050919050565b6000600660009054906101000a900473ffffffffffffffffffffffffffffffffffffffff16905081600660006101000a81548173ffffffffffffffffffffffffffffffffffffffff021916908373ffffffffffffffffffffffffffffffffffffffff1602179055508173ffffffffffffffffffffffffffffffffffffffff168173ffffffffffffffffffffffffffffffffffffffff167f8be0079c531659141344cd1fd0a4f28419497f9722a3daafe3b4186f6b6457e060405160405180910390a35050565b8173ffffffffffffffffffffffffffffffffffffffff168373ffffffffffffffffffffffffffffffffffffffff160361181c576040517f08c379a000000000000000000000000000000000000000000000000000000000815260040161181390613245565b60405180910390fd5b80600560008573ffffffffffffffffffffffffffffffffffffffff1673ffffffffffffffffffffffffffffffffffffffff16815260200190815260200160002060008473ffffffffffffffffffffffffffffffffffffffff1673ffffffffffffffffffffffffffffffffffffffff16815260200190815260200160002060006101000a81548160ff0219169083151502179055508173ffffffffffffffffffffffffffffffffffffffff168373ffffffffffffffffffffffffffffffffffffffff167f17307eab39ab6107e8899845ad3d59bd9653f200f220920489ca2b5937696c318360405161190d91906120ef565b60405180910390a3505050565b611925848484611334565b61193184848484611ac6565b611970576040517f08c379a0000000000000000000000000000000000000000000000000000000008152600401611967906132d7565b60405180910390fd5b50505050565b606060405180602001604052806000815250905090565b60606000600161199c84611c4d565b01905060008167ffffffffffffffff8111156119bb576119ba61236e565b5b6040519080825280601f01601f1916602001820160405280156119ed5781602001600182028036833780820191505090505b509050600082602001820190505b600115611a50578080600190039150507f3031323334353637383961626364656600000000000000000000000000000000600a86061a8153600a8581611a4457611a436132f7565b5b049450600085036119fb575b819350505050919050565b611a75828260405180602001604052806000815250611da0565b5050565b60008073ffffffffffffffffffffffffffffffffffffffff16611a9b836116ab565b73ffffffffffffffffffffffffffffffffffffffff1614159050919050565b50505050565b50505050565b6000611ae78473ffffffffffffffffffffffffffffffffffffffff16611dfb565b15611c40578373ffffffffffffffffffffffffffffffffffffffff1663150b7a02611b106111de565b8786866040518563ffffffff1660e01b8152600401611b32949392919061337b565b6020604051808303816000875af1925050508015611b6e57506040513d601f19601f82011682018060405250810190611b6b91906133dc565b60015b611bf0573d8060008114611b9e576040519150601f19603f3d011682016040523d82523d6000602084013e611ba3565b606091505b506000815103611be8576040517f08c379a0000000000000000000000000000000000000000000000000000000008152600401611bdf906132d7565b60405180910390fd5b805181602001fd5b63150b7a0260e01b7bffffffffffffffffffffffffffffffffffffffffffffffffffffffff1916817bffffffffffffffffffffffffffffffffffffffffffffffffffffffff191614915050611c45565b600190505b949350505050565b600080600090507a184f03e93ff9f4daa797ed6e38ed64bf6a1f0100000000000000008310611cab577a184f03e93ff9f4daa797ed6e38ed64bf6a1f0100000000000000008381611ca157611ca06132f7565b5b0492506040810190505b6d04ee2d6d415b85acef81000000008310611ce8576d04ee2d6d415b85acef81000000008381611cde57611cdd6132f7565b5b0492506020810190505b662386f26fc100008310611d1757662386f26fc100008381611d0d57611d0c6132f7565b5b0492506010810190505b6305f5e1008310611d40576305f5e1008381611d3657611d356132f7565b5b0492506008810190505b6127108310611d65576127108381611d5b57611d5a6132f7565b5b0492506004810190505b60648310611d885760648381611d7e57611d7d6132f7565b5b0492506002810190505b600a8310611d97576001810190505b80915050919050565b611daa8383611e1e565b611db76000848484611ac6565b611df6576040517f08c379a0000000000000000000000000000000000000000000000000000000008152600401611ded906132d7565b60405180910390fd5b505050565b6000808273ffffffffffffffffffffffffffffffffffffffff163b119050919050565b600073ffffffffffffffffffffffffffffffffffffffff168273ffffffffffffffffffffffffffffffffffffffff1603611e8d576040517f08c379a0000000000000000000000000000000000000000000000000000000008152600401611e8490613455565b60405180910390fd5b611e9681611a79565b15611ed6576040517f08c379a0000000000000000000000000000000000000000000000000000000008152600401611ecd906134c1565b60405180910390fd5b611ee4600083836001611aba565b611eed81611a79565b15611f2d576040517f08c379a0000000000000000000000000000000000000000000000000000000008152600401611f24906134c1565b60405180910390fd5b6001600360008473ffffffffffffffffffffffffffffffffffffffff1673ffffffffffffffffffffffffffffffffffffffff16815260200190815260200160002060008282540192505081905550816002600083815260200190815260200160002060006101000a81548173ffffffffffffffffffffffffffffffffffffffff021916908373ffffffffffffffffffffffffffffffffffffffff160217905550808273ffffffffffffffffffffffffffffffffffffffff16600073ffffffffffffffffffffffffffffffffffffffff167fddf252ad1be2c89b69c2b068fc378daa952ba7f163c4a11628f55a4df523b3ef60405160405180910390a4612037600083836001611ac0565b5050565b6000604051905090565b600080fd5b600080fd5b60007fffffffff0000000000000000000000000000000000000000000000000000000082169050919050565b6120848161204f565b811461208f57600080fd5b50565b6000813590506120a18161207b565b92915050565b6000602082840312156120bd576120bc612045565b5b60006120cb84828501612092565b91505092915050565b60008115159050919050565b6120e9816120d4565b82525050565b600060208201905061210460008301846120e0565b92915050565b600081519050919050565b600082825260208201905092915050565b60005b83811015612144578082015181840152602081019050612129565b60008484015250505050565b6000601f19601f8301169050919050565b600061216c8261210a565b6121768185612115565b9350612186818560208601612126565b61218f81612150565b840191505092915050565b600060208201905081810360008301526121b48184612161565b905092915050565b6000819050919050565b6121cf816121bc565b81146121da57600080fd5b50565b6000813590506121ec816121c6565b92915050565b60006020828403121561220857612207612045565b5b6000612216848285016121dd565b91505092915050565b600073ffffffffffffffffffffffffffffffffffffffff82169050919050565b600061224a8261221f565b9050919050565b61225a8161223f565b82525050565b60006020820190506122756000830184612251565b92915050565b6122848161223f565b811461228f57600080fd5b50565b6000813590506122a18161227b565b92915050565b600080604083850312156122be576122bd612045565b5b60006122cc85828601612292565b92505060206122dd858286016121dd565b9150509250929050565b6122f0816121bc565b82525050565b600060208201905061230b60008301846122e7565b92915050565b60008060006060848603121561232a57612329612045565b5b600061233886828701612292565b935050602061234986828701612292565b925050604061235a868287016121dd565b9150509250925092565b600080fd5b600080fd5b7f4e487b7100000000000000000000000000000000000000000000000000000000600052604160045260246000fd5b6123a682612150565b810181811067ffffffffffffffff821117156123c5576123c461236e565b5b80604052505050565b60006123d861203b565b90506123e4828261239d565b919050565b600067ffffffffffffffff8211156124045761240361236e565b5b61240d82612150565b9050602081019050919050565b82818337600083830152505050565b600061243c612437846123e9565b6123ce565b90508281526020810184848401111561245857612457612369565b5b61246384828561241a565b509392505050565b600082601f8301126124805761247f612364565b5b8135612490848260208601612429565b91505092915050565b6000602082840312156124af576124ae612045565b5b600082013567ffffffffffffffff8111156124cd576124cc61204a565b5b6124d98482850161246b565b91505092915050565b6000602082840312156124f8576124f7612045565b5b600061250684828501612292565b91505092915050565b612518816120d4565b811461252357600080fd5b50565b6000813590506125358161250f565b92915050565b6000806040838503121561255257612551612045565b5b600061256085828601612292565b925050602061257185828601612526565b9150509250929050565b600067ffffffffffffffff8211156125965761259561236e565b5b61259f82612150565b9050602081019050919050565b60006125bf6125ba8461257b565b6123ce565b9050828152602081018484840111156125db576125da612369565b5b6125e684828561241a565b509392505050565b600082601f83011261260357612602612364565b5b81356126138482602086016125ac565b91505092915050565b6000806000806080858703121561263657612635612045565b5b600061264487828801612292565b945050602061265587828801612292565b9350506040612666878288016121dd565b925050606085013567ffffffffffffffff8111156126875761268661204a565b5b612693878288016125ee565b91505092959194509250565b600080604083850312156126b6576126b5612045565b5b60006126c485828601612292565b92505060206126d585828601612292565b9150509250929050565b600080604083850312156126f6576126f5612045565b5b600083013567ffffffffffffffff8111156127145761271361204a565b5b6127208582860161246b565b925050602061273185828601612292565b9150509250929050565b7f4e487b7100000000000000000000000000000000000000000000000000000000600052602260045260246000fd5b6000600282049050600182168061278257607f821691505b6020821081036127955761279461273b565b5b50919050565b7f4552433732313a20617070726f76616c20746f2063757272656e74206f776e6560008201527f7200000000000000000000000000000000000000000000000000000000000000602082015250565b60006127f7602183612115565b91506128028261279b565b604082019050919050565b60006020820190508181036000830152612826816127ea565b9050919050565b7f4552433732313a20617070726f76652063616c6c6572206973206e6f7420746f60008201527f6b656e206f776e6572206f7220617070726f76656420666f7220616c6c000000602082015250565b6000612889603d83612115565b91506128948261282d565b604082019050919050565b600060208201905081810360008301526128b88161287c565b9050919050565b7f4552433732313a2063616c6c6572206973206e6f7420746f6b656e206f776e6560008201527f72206f7220617070726f76656400000000000000000000000000000000000000602082015250565b600061291b602d83612115565b9150612926826128bf565b604082019050919050565b6000602082019050818103600083015261294a8161290e565b9050919050565b600081905092915050565b60006129678261210a565b6129718185612951565b9350612981818560208601612126565b80840191505092915050565b6000612999828461295c565b915081905092915050565b7f446f6d61696e206e6f7420726567697374657265640000000000000000000000600082015250565b60006129da601583612115565b91506129e5826129a4565b602082019050919050565b60006020820190508181036000830152612a09816129cd565b9050919050565b7f4552433732313a20696e76616c696420746f6b656e2049440000000000000000600082015250565b6000612a46601883612115565b9150612a5182612a10565b602082019050919050565b60006020820190508181036000830152612a7581612a39565b9050919050565b7f4552433732313a2061646472657373207a65726f206973206e6f74206120766160008201527f6c6964206f776e65720000000000000000000000000000000000000000000000602082015250565b6000612ad8602983612115565b9150612ae382612a7c565b604082019050919050565b60006020820190508181036000830152612b0781612acb565b9050919050565b6000612b1a828561295c565b9150612b26828461295c565b91508190509392505050565b7f4f776e61626c653a206e6577206f776e657220697320746865207a65726f206160008201527f6464726573730000000000000000000000000000000000000000000000000000602082015250565b6000612b8e602683612115565b9150612b9982612b32565b604082019050919050565b60006020820190508181036000830152612bbd81612b81565b9050919050565b7f446f6d61696e206e616d652063616e6e6f7420626520656d7074790000000000600082015250565b6000612bfa601b83612115565b9150612c0582612bc4565b602082019050919050565b60006020820190508181036000830152612c2981612bed565b9050919050565b7f446f6d61696e20616c7265616479207265676973746572656400000000000000600082015250565b6000612c66601983612115565b9150612c7182612c30565b602082019050919050565b60006020820190508181036000830152612c9581612c59565b9050919050565b7f43616e6e6f7420726567697374657220746f207a65726f206164647265737300600082015250565b6000612cd2601f83612115565b9150612cdd82612c9c565b602082019050919050565b60006020820190508181036000830152612d0181612cc5565b9050919050565b7f496e73756666696369656e74206665652070726f766964656400000000000000600082015250565b6000612d3e601983612115565b9150612d4982612d08565b602082019050919050565b60006020820190508181036000830152612d6d81612d31565b9050919050565b7f4e487b7100000000000000000000000000000000000000000000000000000000600052601160045260246000fd5b6000612dae826121bc565b91507fffffffffffffffffffffffffffffffffffffffffffffffffffffffffffffffff8203612de057612ddf612d74565b5b600182019050919050565b60008190508160005260206000209050919050565b60006020601f8301049050919050565b600082821b905092915050565b600060088302612e4d7fffffffffffffffffffffffffffffffffffffffffffffffffffffffffffffffff82612e10565b612e578683612e10565b95508019841693508086168417925050509392505050565b6000819050919050565b6000612e94612e8f612e8a846121bc565b612e6f565b6121bc565b9050919050565b6000819050919050565b612eae83612e79565b612ec2612eba82612e9b565b848454612e1d565b825550505050565b600090565b612ed7612eca565b612ee2818484612ea5565b505050565b5b81811015612f0657612efb600082612ecf565b600181019050612ee8565b5050565b601f821115612f4b57612f1c81612deb565b612f2584612e00565b81016020851015612f34578190505b612f48612f4085612e00565b830182612ee7565b50505b505050565b600082821c905092915050565b6000612f6e60001984600802612f50565b1980831691505092915050565b6000612f878383612f5d565b9150826002028217905092915050565b612fa08261210a565b67ffffffffffffffff811115612fb957612fb861236e565b5b612fc3825461276a565b612fce828285612f0a565b600060209050601f8311600181146130015760008415612fef578287015190505b612ff98582612f7b565b865550613061565b601f19841661300f86612deb565b60005b8281101561303757848901518255600182019150602085019450602081019050613012565b868310156130545784890151613050601f891682612f5d565b8355505b6001600288020188555050505b505050505050565b7f4552433732313a207472616e736665722066726f6d20696e636f72726563742060008201527f6f776e6572000000000000000000000000000000000000000000000000000000602082015250565b60006130c5602583612115565b91506130d082613069565b604082019050919050565b600060208201905081810360008301526130f4816130b8565b9050919050565b7f4552433732313a207472616e7366657220746f20746865207a65726f2061646460008201527f7265737300000000000000000000000000000000000000000000000000000000602082015250565b6000613157602483612115565b9150613162826130fb565b604082019050919050565b600060208201905081810360008301526131868161314a565b9050919050565b7f4f776e61626c653a2063616c6c6572206973206e6f7420746865206f776e6572600082015250565b60006131c3602083612115565b91506131ce8261318d565b602082019050919050565b600060208201905081810360008301526131f2816131b6565b9050919050565b7f4552433732313a20617070726f766520746f2063616c6c657200000000000000600082015250565b600061322f601983612115565b915061323a826131f9565b602082019050919050565b6000602082019050818103600083015261325e81613222565b9050919050565b7f4552433732313a207472616e7366657220746f206e6f6e20455243373231526560008201527f63656976657220696d706c656d656e7465720000000000000000000000000000602082015250565b60006132c1603283612115565b91506132cc82613265565b604082019050919050565b600060208201905081810360008301526132f0816132b4565b9050919050565b7f4e487b7100000000000000000000000000000000000000000000000000000000600052601260045260246000fd5b600081519050919050565b600082825260208201905092915050565b600061334d82613326565b6133578185613331565b9350613367818560208601612126565b61337081612150565b840191505092915050565b60006080820190506133906000830187612251565b61339d6020830186612251565b6133aa60408301856122e7565b81810360608301526133bc8184613342565b905095945050505050565b6000815190506133d68161207b565b92915050565b6000602082840312156133f2576133f1612045565b5b6000613400848285016133c7565b91505092915050565b7f4552433732313a206d696e7420746f20746865207a65726f2061646472657373600082015250565b600061343f602083612115565b915061344a82613409565b602082019050919050565b6000602082019050818103600083015261346e81613432565b9050919050565b7f4552433732313a20746f6b656e20616c7265616479206d696e74656400000000600082015250565b60006134ab601c83612115565b91506134b682613475565b602082019050919050565b600060208201905081810360008301526134da8161349e565b905091905056fea264697066735822122027b71dca933fc150f3dab41b0a97a3e6b595d87d627554679dbfc5d853f6195664736f6c63430008140033",
  "linkReferences": {},
  "deployedLinkReferences": {}
}